:100000000C9469000C941A060C94F3050C9491005E
:100010000C9491000C9491000C9491000C9491001C
:100020000C9491000C9491000C9491000C9491000C
:100030000C9491000C9491000C9491000C949100FC
:100040000C94A9050C9491000C9467060C9441063D
:100050000C9491000C9491000C9491000C949100DC
:100060000C9491000C94910024083308F80A110BA9
:10007000200B560B2D0B00000000240027002A0047
:1000800000000000250028002B00000000002300D5
:1000900026002900000000080002010000030407F8
:1000A0000000000000000000040404040404040430
:1000B0000202020202020303030303030102040813
:1000C00010204080010204081020010204081020C2
:1000D000990611241FBECFEFD8E0DEBFCDBF22E0CE
:1000E000A0E6B1E001C01D92A73AB207E1F711E026
:1000F000A0E0B1E0E0E3FDE102C005900D92A03682
:10010000B107D9F710E0C9E6D0E004C02197FE019D
:100110000E943F0CC836D107C9F70E94E6060C942E
:10012000960E0C940000CF92DF92EF92FF92CF9345
:10013000DF93B0919902882311F0AB2F01C0A0E0AA
:1001400080919A0290E0880F991F86579F4FC09028
:100150009F02D090A002E090A102F090A20220E0C5
:1001600030E0FC01C591D491E881EB23A90160E066
:1001700070E0EA130CC02F5F3F4F4C155D056E0514
:100180007F0578F33FEF2FEF8FEF9FEF03C0322F04
:10019000252FCB01632F722FDF91CF91FF90EF902E
:1001A000DF90CF90089590E0FC01EC56FF4F249132
:1001B000FC01E454FF4F3491FC01E855FF4FE491FA
:1001C000EE2309F43CC0222339F1233091F038F4B6
:1001D0002130A9F0223001F584B58F7D12C027307F
:1001E00091F02830A1F02430B9F4809180008F7D07
:1001F00003C0809180008F77809380000DC084B50C
:100200008F7784BD09C08091B0008F7703C0809143
:10021000B0008F7D8093B000F0E0EE0FFF1FE0583C
:10022000FF4FA591B4919FB7F894611104C08C91D0
:100230003095382302C0EC913E2B3C939FBF08952C
:10024000CF93DF9390E0FC01E454FF4F2491FC0135
:10025000E855FF4F8491882361F190E0880F991F42
:10026000FC01EA58FF4FC591D491FC01E058FF4FC3
:10027000A591B491611109C09FB7F8948881209528
:1002800082238883EC912E230BC0623061F49FB7E8
:10029000F8948881322F309583238883EC912E2B1C
:1002A0002C939FBF06C08FB7F894E8812E2B28832C
:1002B0008FBFDF91CF910895CF93DF93EC0161E081
:1002C00086E00E942001209711F460E004C0CF3F37
:1002D000D10531F461E086E0DF91CF910C94D30039
:1002E000EAE9F0E0E491E330F9F048F4E130B9F004
:1002F000E230A1F584B5806284BDC8BD34C0E7306A
:10030000E9F0E83019F1E43049F58091800080622D
:1003100080938000D0938B00C0938A0024C084B562
:10032000806884BDC7BD1FC08091800080688093B5
:100330008000D0938900C093880015C08091B000E0
:1003400080688093B000C093B3000DC08091B0006E
:1003500080628093B000C093B40005C0C038D1055E
:100360000CF0B8CFB2CFDF91CF9108953FB7F8949A
:100370008091ED019091EE01A091EF01B091F0011B
:1003800026B5A89B05C02F3F19F00196A11DB11DF0
:100390003FBFBA2FA92F982F8827820F911DA11D2B
:1003A000B11DBC01CD0142E0660F771F881F991F68
:1003B0004A95D1F708958F929F92AF92BF92CF92B4
:1003C000DF92EF92FF926B017C010E94B6014B011C
:1003D0005C01C114D104E104F104F1F00E94B60102
:1003E000DC01CB0188199909AA09BB09883E934011
:1003F000A105B10570F321E0C21AD108E108F108A6
:1004000088EE880E83E0981EA11CB11CC114D10493
:10041000E104F10419F7DDCFFF90EF90DF90CF906A
:10042000BF90AF909F908F900895CF92DF92EF9200
:10043000FF920F931F93CF93DF93CDB7DEB7C054D6
:10044000D1400FB6F894DEBF0FBECDBF2FB7F894E2
:100450008091F1019091F201A091F301B091F4012A
:100460002FBF40919B0250919C0260919D02709120
:100470009E028C019D01041B150B260B370BB90145
:10048000A801403D57406105710518F48091A30211
:10049000CAC080939B0290939C02A0939D02B0934C
:1004A0009E0210929602109295021092940210925F
:1004B00093021092920262E0809197020E942001C2
:1004C00061E070E080E090E00E94DB0161E08091FB
:1004D00097020E94200160E0809197020E94D30061
:1004E000809198028551823028F48BE291E1019746
:1004F000F1F706C064E170E080E090E00E94DB016B
:1005000062E0809197020E9420018091A40290E015
:100510008230910538F0880F991F880F991F059731
:100520000197F1F7F89480E00E9493006F3F7F4FAE
:100530008F4F9F4F21F41092A302789441C081E025
:100540000E9493006F3F7F4F8F4F9F4FA1F38E010B
:100550000F5F1F4F6E018FEBC81A8EEFD80A78011C
:1005600080E00E949300F70160837183828393830C
:1005700081E00E949300F7016483758386839783EB
:10058000F8E0EF0EF11CEC14FD0451F7789420E034
:1005900030E0F801C080D180E280F3804481558151
:1005A00066817781FFEFCF16DF06EF06FF0631F099
:1005B0004F3F8FEF58076807780721F41092A30286
:1005C00080E031C0F90183E0F595E7958A95E1F780
:1005D000EE56FD4F8081880FC416D506E606F70655
:1005E00008F4816080832F5F3F4F085F1F4F2832E0
:1005F000310579F62091960230E040919202809187
:10060000930290E0840F911D40919402840F911DFC
:1006100040919502840F911D99272817390771F68B
:1006200081E08093A302C05CDE4F0FB6F894DEBF7A
:100630000FBECDBFDF91CF911F910F91FF90EF9033
:10064000DF90CF90089580916A0190916B0101969F
:1006500090936B0180936A0108950895CF92DF9281
:10066000EF92FF920F931F93CF93DF936C017A0168
:100670008B01C0E0D0E0CE15DF0581F0D8016D918F
:100680008D01D601ED91FC910190F081E02DC60124
:100690000995892B11F02196EECF7E01C701DF91DC
:1006A000CF911F910F91FF90EF90DF90CF90089521
:1006B000089580E090E00895FC01538D448D252F2E
:1006C00030E0842F90E0821B930B541710F0CF96EC
:1006D000089501970895FC01918D828D981761F01E
:1006E000828DDF01A80FB11D5D968C91928D9F5F69
:1006F0009F73928F90E008958FEF9FEF0895FC0114
:10070000918D828D981731F0828DE80FF11D858DC6
:1007100090E008958FEF9FEF0895FC01918D228D59
:10072000892F90E0805C9F4F821B91098F739927DE
:10073000089585EF91E00E948D0321E0892B09F453
:1007400020E0822F0895FC01848DDF01A80FB11DE8
:10075000A35ABF4F2C91848D90E001968F739927F7
:10076000848FA689B7892C93A089B1898C918370D5
:1007700080648C93938D848D981306C00288F389CE
:10078000E02D80818F7D80830895EF92FF920F93FB
:100790001F93CF93DF93EC0181E0888F9B8D8C8D2D
:1007A000981305C0E889F989808185FD26C0F62E59
:1007B0000B8D10E00F5F1F4F0F731127E02E8C8DF4
:1007C000E8120CC00FB607FCFACFE889F9898081DE
:1007D00085FFF5CFCE010E94A303F1CF8B8DFE01E3
:1007E000E80FF11DE35AFF4FF0829FB7F8940B8F8B
:1007F000EA89FB89808180620AC09FB7F894EE89FC
:10080000FF896083E889F9898081837080648083AF
:100810009FBF81E090E0DF91CF911F910F91FF90FA
:10082000EF900895CF93DF93EC01888D8823C9F072
:10083000EA89FB89808185FD05C0A889B9898C91E9
:1008400086FD0FC00FB607FCF5CF808185FFF2CF84
:10085000A889B9898C9185FFEDCFCE010E94A303B1
:10086000E7CFDF91CF91089580E090E0892B29F0C8
:100870000E94990381110C9400000895E3E8F1E0CF
:1008800010821182128213821482089510926B01D9
:1008900010926A0110927B0110927C0110927D01EE
:1008A00010927E0110927F011092800110928101BE
:1008B0001092820110926C0110926D0110926E01E3
:1008C00010926F01109270011092710110927201DA
:1008D00010927301109274011092750110927601BA
:1008E000109277011092A3011092A4011092A50119
:1008F0001092A6010895009769F0FC010190002074
:10090000E9F73197AF01481B590BBC0185EF91E026
:100910000C942E0380E090E008958F929F92AF9206
:10092000BF920F931F93CF93DF93CDB7DEB7A197FD
:100930000FB6F894DEBF0FBECDBF19A2423008F447
:100940004AE08E010F5D1F4F842E912CA12CB12CFB
:10095000A50194010E941D0CE62FB901CA010150A6
:100960001109EA3014F4E05D01C0E95CD801EC93B0
:10097000232B242B252B61F7C8010E947B04A19611
:100980000FB6F894DEBF0FBECDBFDF91CF911F91A0
:100990000F91BF90AF909F908F900895CF93DF936A
:1009A0000E947B04EC0188E191E00E947B048C0FA3
:1009B0009D1FDF91CF9108954F925F926F927F922A
:1009C0008F929F92AF92BF92CF92DF92EF92FF925F
:1009D0006B017C019B01AC010E947C0E882319F005
:1009E0008BE191E01AC046015701E894B7F82FEF68
:1009F0003FEF4FE75FE7C501B4010E947C0E811114
:100A000010C02FEF3FEF4FE75FE7C501B4010E9431
:100A1000B20C181634F48FE191E00E947B047C0143
:100A200083C02FEF3FEF4FE75FE4C701B6010E949D
:100A30000A0E18161CF483E291E0EFCF2FEF3FEF80
:100A40004FE75FECC701B6010E94B20C87FDF3CF00
:100A500020E030E0A901C701B6010E94B20C87FF77
:100A60000BC06DE285EF91E00E94C5035C01F7FACF
:100A7000F094F7F8F09402C0A12CB12C2AE037EDE5
:100A800043EA5BE3C701B6010E94460C2B013C011F
:100A90000E94290D6B017C010E94580D9B01AC0145
:100AA000C301B2010E94450C2B013C014AE0C70181
:100AB000B6010E948D047C01EA0CFB1C6EE285EFFE
:100AC00091E00E94C503E80EF91E20E030E040E20C
:100AD00051E4C301B2010E940F0E2B013C010E94A0
:100AE000290D4B01A12CB12C4AE0C501B4010E9493
:100AF0008D04E80EF91EC501B4010E94580D9B013A
:100B0000AC01C301B2010E94450C20E030E040E29C
:100B100051E40E940F0E0E94290D80E090E04AE00F
:100B20000E948D04E80EF91E88E191E00E947B048A
:100B30008E0D9F1DFF90EF90DF90CF90BF90AF90F4
:100B40009F908F907F906F905F904F9008950E943C
:100B5000810E1F920F920FB60F9211242F933F9385
:100B60008F939F93AF93BF938091F1019091F20186
:100B7000A091F301B091F4013091EC0123E0230F37
:100B80002D3720F40196A11DB11D05C026E8230FC5
:100B90000296A11DB11D2093EC018093F101909369
:100BA000F201A093F301B093F4018091ED019091D3
:100BB000EE01A091EF01B091F0010196A11DB11DD0
:100BC0008093ED019093EE01A093EF01B093F001BB
:100BD000BF91AF919F918F913F912F910F900FBE39
:100BE0000F901F9018951F920F920FB60F9211241D
:100BF0002F933F934F935F936F937F938F939F9325
:100C0000AF93BF93EF93FF93E0910201F091030143
:100C10000995FF91EF91BF91AF919F918F917F9136
:100C20006F915F914F913F912F910F900FBE0F9059
:100C30001F9018951F920F920FB60F9211242F93A9
:100C40003F934F935F936F937F938F939F93AF9354
:100C5000BF93EF93FF93E0910001F091010109959B
:100C6000FF91EF91BF91AF919F918F917F916F9184
:100C70005F914F913F912F910F900FBE0F901F905A
:100C800018951F920F920FB60F9211242F933F9336
:100C90004F935F936F937F938F939F93AF93BF9384
:100CA000EF93FF9385EF91E00E94A303FF91EF91F3
:100CB000BF91AF919F918F917F916F915F914F9174
:100CC0003F912F910F900FBE0F901F9018951F927C
:100CD0000F920FB60F9211242F938F939F93EF9340
:100CE000FF93E0910502F09106028081E0910B02F2
:100CF000F0910C0282FD12C0908180910E028F5FF4
:100D00008F7320910F02821751F0E0910E02F0E0F4
:100D1000EB50FE4F958F80930E0201C08081FF91B2
:100D2000EF919F918F912F910F900FBE0F901F9079
:100D30001895E5EFF1E01382128288EE93E0A0E0CF
:100D4000B0E084839583A683B7838AE091E09183A2
:100D5000808385EC90E09587848784EC90E097878A
:100D6000868780EC90E0918B808B81EC90E0938B78
:100D7000828B82EC90E0958B848B86EC90E0978B55
:100D8000868B118E128E138E148EA2E9B2E085E04E
:100D900015968C93159786E116968C931697E1EC31
:100DA000F0E0E4911796EC931797EDEAF0E0E49108
:100DB0001896EC93189740E85EE360E070E01D96AB
:100DC0004D935D936D937C9350970895CF93DF93EC
:100DD000CDB7DEB728970FB6F894DEBF0FBECDBFF4
:100DE000789484B5826084BD84B5816084BD85B506
:100DF000826085BD85B5816085BD80916E00816012
:100E000080936E00109281008091810082608093B7
:100E100081008091810081608093810080918000B9
:100E20008160809380008091B10084608093B100E4
:100E30008091B00081608093B00080917A008460DE
:100E400080937A0080917A00826080937A0080910A
:100E50007A00816080937A0080917A008068809324
:100E60007A001092C100E0910502F091060282E042
:100E70008083E0910102F09102021082E09103026E
:100E8000F09104028FEC808310920D02E091090230
:100E9000F0910A0286E08083E0910702F091080257
:100EA000808180618083E0910702F0910802808157
:100EB00088608083E0910702F09108028081806859
:100EC0008083E0910702F091080280818F7D80830A
:100ED00060E083E00E94200161E086E00E94200142
:100EE00061E087E00E94200161E084E00E9420012F
:100EF00061E087E00E94D30060E084E00E94D300BC
:100F000083E293E090930301809302018091690052
:100F10008C6080936900E99A62E0809197020E9458
:100F200020012FB7F8948091F1019091F201A091E6
:100F3000F301B091F4012FBF805D9740A109B10981
:100F400080939B0290939C02A0939D02B0939E027B
:100F500087E38093A40211E022242394312C0FE92B
:100F600085EF91E00E948D032091EB01892B69F1BF
:100F700021112BC085EF91E00E946B0390916101DC
:100F80009923F1F0E09160018E3379F0AE2FB0E05B
:100F9000A555BE4F8C93EF5FE03218F4E0936001EB
:100FA000DFCF2FE120936001DBCFF0E0E555FE4F6E
:100FB000108210926101109260011093EB01D0CF6A
:100FC0008C3371F610936101CBCF222389F16BEA48
:100FD00071E08BEC91E00E948F0E67E271E08BEC88
:100FE00091E00E94E90B7C01BC0183E891E00E9442
:100FF0008F0E69E271E0C7010E94860E892BB1F461
:1010000067E271E080E090E00E94E90B0E94CB0B68
:101010008093790167E271E080E090E00E94E90B43
:101020000E94CB0B9093A8018093A7011092EB0133
:10103000E0910401F0910501E730F10508F0A8C343
:10104000EC5CFF4F0C943F0C0E943E048EE291E05A
:101050000E94CE041093AA0145E050E05093050190
:101060004093040195C38091A901811104C00E949D
:1010700046041093A901C090A301D090A401E09070
:10108000A501F090A6016091A7017091A80180E0F0
:1010900090E00E94580DA70196010E94B20C18160C
:1010A0009CF080E391E00E94CE0480E090E00E94FA
:1010B0005C010E943E041092A90185E090E09093AB
:1010C00005018093040164C363E371E083E891E068
:1010D0000E94860E892B59F48EE291E00E94CE0484
:1010E00080E090E00E945C01A2E0B0E02DC368E3E4
:1010F00071E083E891E00E94860E892B19F423E0C9
:1011000030E042C36DE371E083E891E00E94860E17
:10111000892B09F0FBC00E9415028823D1F1809130
:1011200098028B30B0F18D30A8F08551823088F56F
:10113000609192027091930276276727762780E06C
:1011400090E00E94580D2DEC3CEC4CEC5DE30E94CD
:101150000F0E1CC06091930270E080E090E00E944E
:101160005A0D2DEC3CEC4CEC5DE30E940F0E6B0134
:101170007C016091920270E080E090E00E945A0D44
:101180009B01AC01C701B6010E94460C4B015C01FA
:1011900006C0812C912C20ECA22E2FE7B22E80923B
:1011A000660190926701A0926801B09269010E9465
:1011B0001502882309F474C0809198028C3009F4D8
:1011C00048C018F48B30D1F06BC08551823008F0E4
:1011D00067C070909402672D6F7770E0762F662756
:1011E00080919502682B80E090E00E94580D2DECD4
:1011F0003CEC4CEC5DE30E940F0E49C06091940200
:1012000070E080E090E00E94580D6B017C017090CE
:10121000950277FE0AC09B01AC0160E070E080E8B7
:101220009FEB0E94450C6B017C01672D6F7070E095
:1012300080E090E00E945A0D2DEC3CEC4CEC5DE31C
:101240000E940F0EA70196010E94460C6B017C01C3
:101250002DC070909402609195026F7070E080E0F4
:1012600090E00E945A0D2DEC3CEC4CEC5DE30E94AA
:101270000F0E6B017C01672D70E080E090E00E9412
:10128000580D9B01AC01C701B6010E94460C6B01D1
:101290007C0177FE0BC0F7FAF094F7F8F09406C0E3
:1012A000C12CD12C80ECE82E8FE7F82EC092620181
:1012B000D0926301E0926401F0926501A50194016E
:1012C000C501B4010E947C0E882329F082E491E0DC
:1012D0000E94CE0408C0A7019601C701B6010E9472
:1012E0007C0E8111F3CF609166017091670180914E
:1012F0006801909169010E94DC0460916201709123
:101300006301809164019091650124C066E471E0FD
:1013100083E891E00E94860E892B61F4C701B60133
:101320000E94290D4AE00E948D0488E191E00E940C
:101330007B0412C06BE471E083E891E00E94860EAA
:10134000892B61F460917F0170918001809181010E
:10135000909182010E94DC040E943E048FB7F894B1
:101360004090F1015090F2016090F3017090F4010F
:101370008FBF80917B0190917C01A0917D01B09104
:101380007E01A3019201281B390B4A0B5B0B283C01
:1013900031054105510508F4FBC1F89460916A01DB
:1013A00070916B0110926B0110926A01789480E049
:1013B00090E00E94580D4B015C012FB7F89480918A
:1013C000F1019091F201A091F301B091F4012FBFCE
:1013D000C0907B01D0907C01E0907D01F0907E0177
:1013E000BC01CD016C197D098E099F090E94580D21
:1013F0009B01AC0160E070E68AE697E40E94B70CBE
:10140000A50194010E940F0E20E030EC4EE254E45E
:101410000E94B70C6B017C0160937F017093800187
:10142000809381019093820120E030EC4EE254E4FD
:10143000C501B4010E94B70C9B01AC016091A301EE
:101440007091A4018091A5019091A6010E94460C83
:101450006093A3017093A4018093A5019093A601CA
:101460006091780170E080E090E00E945A0DA70141
:1014700096010E94450C6B017C0180917401909152
:101480007501A0917601B091770189839A83AB832E
:10149000BC8320E030E04AE754E4BC01CD010E9467
:1014A000B70C20E030E048E453E40E940F0E209196
:1014B00070013091710140917201509173010E944D
:1014C000460C4B015C016093700170937101809335
:1014D000720190937301C0927401D0927501E092F1
:1014E0007601F092770120E030E040E05FE3C70151
:1014F000B6010E940F0E6D837E838F8398872DEC3B
:101500003CEC4CE45FE3C501B4010E940F0E9B016B
:10151000AC016D817E818F8198850E94460C4B01C4
:101520005C0129813A814B815C81C701B6010E942F
:10153000450C20E030E048E453E40E94B70C20E082
:1015400030E040E450E40E940F0E9B01AC01C50165
:10155000B4010E94460C6B017C0120E030E04FE7B3
:1015600053E40E940A0E18164CF0C0926C01D092FF
:101570006D01E0926E01F0926F010CC080E090E08E
:10158000AFE7B3E480936C0190936D01A0936E017B
:10159000B0936F0120E030E0A90160916C0170917F
:1015A0006D0180916E0190916F010E94B20C87FFD6
:1015B00008C010926C0110926D0110926E01109291
:1015C0006F0160916C0170916D0180916E0190913D
:1015D0006F010E94290D862F90E00E945C014092CD
:1015E0007B0150927C0160927D0170927E01D0C09F
:1015F0000E943E0469E271E083E891E00E94860E59
:10160000892B29F430920501209204018AC068E3F5
:1016100071E083E891E00E94860E892B09F46FCD7A
:10162000B7C00E943E0480E090E00E945C0180E32D
:1016300091E00E94CE041092A901A5E0B0E084C020
:101640000E943E048EE291E00E94CE041092AA0114
:101650000E94460425E030E097C080917A0131E095
:10166000832780937A01882389F080E590E00E94A7
:101670005C010E943E048EE291E00E94CE0445E0AF
:1016800050E0509305014093040110C080E090E0C9
:101690000E945C010E943E0480E391E00E94CE041F
:1016A00085E090E0909305018093040160E571E08E
:1016B00083E891E00E94860E892B49F48091AA016B
:1016C000813029F0109205011092040161C069E295
:1016D00071E083E891E00E94860E892B39F58091B4
:1016E000AA01813019F5209179018BEF820F8330A7
:1016F000E8F48091A7019091A801892BB9F030926C
:10170000050120920401253021F48FEB80937801AC
:1017100008C0263019F40093780103C098E890932C
:1017200078018EE291E00E94CE0432C065E571E05E
:1017300083E891E00E94860E892B59F48091AA01DA
:10174000813039F4A6E0B0E0B0930501A093040124
:101750001FC068E371E083E891E00E94860E892B48
:1017600029F48091AA01813009F4C9CC6AE571E0BD
:1017700083E891E00E94860E892B51F48091AA01A2
:10178000813031F424E030E03093050120930401EE
:101790000E943404E5CBFC0188279927E894219125
:1017A0002032E9F3293010F02E30C8F32B3241F00B
:1017B0002D3239F4689404C00E94150C820F911DDB
:1017C000219120532A30C0F31EF4909581959F4FAC
:1017D000089545EA52E00E94EE0B0895FA01A191A6
:1017E000B081009719F41097E1F0CD01DC01CD0133
:1017F0000D90002011F4C00113C0FB0121912223A0
:1018000019F02015D9F7F3CFFB012191201519F418
:101810001E92119606C02223C1F70D900020A1F759
:10182000D001FA01A193B08308957AE0979F902D9B
:10183000879F802D910D11240895A1E21A2EAA1BD5
:10184000BB1BFD010DC0AA1FBB1FEE1FFF1FA21770
:10185000B307E407F50720F0A21BB30BE40BF50B6D
:10186000661F771F881F991F1A9469F760957095F6
:10187000809590959B01AC01BD01CF010895EE0FBD
:10188000FF1F0590F491E02D09945058BB27AA271B
:101890000E945D0C0C94D00D0E94C20D38F00E9485
:1018A000C90D20F039F49F3F19F426F40C94BF0DB4
:1018B0000EF4E095E7FB0C94B90DE92F0E94E10DC1
:1018C00058F3BA17620773078407950720F079F475
:1018D000A6F50C94030E0EF4E0950B2EBA2FA02D56
:1018E0000B01B90190010C01CA01A0011124FF27CD
:1018F000591B99F0593F50F4503E68F11A16F040C8
:10190000A22F232F342F4427585FF3CF46953795C6
:101910002795A795F0405395C9F77EF41F16BA0B8B
:10192000620B730B840BBAF09150A1F0FF0FBB1F39
:10193000661F771F881FC2F70EC0BA0F621F731F82
:10194000841F48F4879577956795B795F7959E3FDF
:1019500008F0B0CF9395880F08F09927EE0F979570
:10196000879508950E94950D08F481E008950E94DE
:10197000CB0C0C94D00D0E94C90D58F00E94C20DE2
:1019800040F029F45F3F29F00C94B90D51110C94EB
:10199000040E0C94BF0D0E94E10D68F39923B1F37E
:1019A000552391F3951B550BBB27AA276217730785
:1019B000840738F09F5F5F4F220F331F441FAA1F19
:1019C000A9F335D00E2E3AF0E0E832D091505040D5
:1019D000E695001CCAF72BD0FE2F29D0660F771F83
:1019E000881FBB1F261737074807AB07B0E809F069
:1019F000BB0B802DBF01FF2793585F4F3AF09E3FEE
:101A0000510578F00C94B90D0C94040E5F3FE4F38B
:101A1000983ED4F3869577956795B795F7959F5F30
:101A2000C9F7880F911D9695879597F90895E1E07C
:101A3000660F771F881FBB1F621773078407BA07DB
:101A400020F0621B730B840BBA0BEE1F88F7E09536
:101A500008950E94E90D88F09F5798F0B92F9927B3
:101A6000B751B0F0E1F0660F771F881F991F1AF089
:101A7000BA95C9F714C0B13091F00E94030EB1E0DD
:101A800008950C94030E672F782F8827B85F39F0DC
:101A9000B93FCCF3869577956795B395D9F73EF422
:101AA00090958095709561957F4F8F4F9F4F0895CA
:101AB000E89409C097FB3EF49095809570956195E8
:101AC0007F4F8F4F9F4F9923A9F0F92F96E9BB279E
:101AD0009395F695879577956795B795F111F8CF1A
:101AE000FAF4BB0F11F460FF1BC06F5F7F4F8F4F85
:101AF0009F4F16C0882311F096E911C0772321F07B
:101B00009EE8872F762F05C0662371F096E8862F12
:101B100070E060E02AF09A95660F771F881FDAF769
:101B2000880F9695879597F90895990F0008550F96
:101B3000AA0BE0E8FEEF16161706E807F907C0F053
:101B400012161306E407F50798F0621B730B840B5B
:101B5000950B39F40A2661F0232B242B252B21F435
:101B600008950A2609F4A140A6958FEF811D811DD5
:101B7000089597F99F6780E870E060E008959FEF0F
:101B800080EC089500240A94161617061806090614
:101B9000089500240A9412161306140605060895E3
:101BA000092E0394000C11F4882352F0BB0F40F46B
:101BB000BF2B11F460FF04C06F5F7F4F8F4F9F4FAB
:101BC000089557FD9058440F551F59F05F3F71F02D
:101BD0004795880F97FB991F61F09F3F79F0879594
:101BE0000895121613061406551FF2CF4695F1DF1D
:101BF00008C0161617061806991FF1CF86957105AD
:101C0000610508940895E894BB2766277727CB01E0
:101C100097F908950E94950D08F48FEF08950E949A
:101C2000220E0C94D00D0E94C20D38F00E94C90DF6
:101C300020F0952311F00C94B90D0C94BF0D1124D4
:101C40000C94040E0E94E10D70F3959FC1F3950F63
:101C500050E0551F629FF001729FBB27F00DB11D30
:101C6000639FAA27F00DB11DAA1F649F6627B00DC0
:101C7000A11D661F829F2227B00DA11D621F739FA9
:101C8000B00DA11D621F839FA00D611D221F749FB7
:101C90003327A00D611D231F849F600D211D822FFE
:101CA000762F6A2F11249F5750409AF0F1F0882325
:101CB0004AF0EE0FFF1FBB1F661F771F881F915052
:101CC0005040A9F79E3F510580F00C94B90D0C943B
:101CD000040E5F3FE4F3983ED4F3869577956795BD
:101CE000B795F795E7959F5FC1F7FE2B880F911D7C
:101CF0009695879597F908950E94950D880B990BF5
:101D0000089581E090E0F8940C94960EFB01DC01BC
:101D10008D91019080190110D9F3990B0895FB0161
:101D2000DC0101900D920020E1F70895F894FFCFB7
:101D30002D032D03050000000000C5032E035C03E6
:101D400012048D036B037F030D0A006E616E006940
:101D50006E66006F7666002C0053544152003000CE
:101D60002D3100504155530053544F5000544D48AD
:101D70004D004E614E0053454E44005350454500C2
:101D8000434F4E4E00544553540044434F4E0000C1
:00000001FF
