:100000000C9462000C947A070C9453070C948A00A9
:100010000C948A000C948A000C948A000C948A0038
:100020000C948A000C948A000C948A000C948A0028
:100030000C948A000C948A000C948A000C948A0018
:100040000C9409070C948A000C94C7070C94A10720
:100050000C948A000C948A000C948A000C948A00F8
:100060000C948A000C948A000000000024002700F1
:100070002A0000000000250028002B0000000000DE
:1000800023002600290000000008000201000003F0
:10009000040700000000000000000404040404043D
:1000A0000404020202020202030303030303010227
:1000B00004081020408001020408102001020408F6
:1000C0001020F90711241FBECFEFD8E0DEBFCDBF4F
:1000D00023E0AAE0B2E001C01D92A035B207E1F72B
:1000E00012E0A0E0B1E0EAE8FDE102C005900D9267
:1000F000AA30B107D9F710E0C2E6D0E004C02197DA
:10010000FE010E94650CC136D107C9F70E9446085E
:100110000C94C30E0C940000CF92DF92EF92FF92EA
:10012000CF93DF93B0914203882311F0AB2F01C02E
:10013000A0E08091430390E0880F991F84589F4F5F
:10014000C0904803D0904903E0904A03F0904B03DD
:1001500020E030E0FC01C591D491E881EB23A901B6
:1001600060E070E0EA130CC02F5F3F4F4C155D0557
:100170006E057F0578F33FEF2FEF8FEF9FEF03C002
:10018000322F252FCB01632F722FDF91CF91FF905C
:10019000EF90DF90CF90089590E0FC01EA57FF4F79
:1001A0002491FC01E255FF4F3491FC01E656FF4FCC
:1001B000E491EE2309F43CC0222339F1233091F07D
:1001C00038F42130A9F0223001F584B58F7D12C0BA
:1001D000273091F02830A1F02430B9F480918000CC
:1001E0008F7D03C0809180008F77809380000DC049
:1001F00084B58F7784BD09C08091B0008F7703C02C
:100200008091B0008F7D8093B000F0E0EE0FFF1F73
:10021000EE58FF4FA591B4919FB7F894611104C0B7
:100220008C913095382302C0EC913E2B3C939FBFBC
:100230000895CF93DF9390E0FC01E255FF4F2491A6
:10024000FC01E656FF4F8491882361F190E0880F0E
:10025000991FFC01E859FF4FC591D491FC01EE585C
:10026000FF4FA591B491611109C09FB7F89488819F
:10027000209582238883EC912E230BC0623061F499
:100280009FB7F8948881322F309583238883EC912F
:100290002E2B2C939FBF06C08FB7F894E8812E2B8E
:1002A00028838FBFDF91CF910895CF93DF93EC0127
:1002B00061E086E00E941901209711F460E004C01B
:1002C000CF3FD10531F461E086E0DF91CF910C940E
:1002D000CC00ECE8F0E0E491E330F9F048F4E130F0
:1002E000B9F0E230A1F584B5806284BDC8BD34C0E8
:1002F000E730E9F0E83019F1E43049F58091800009
:10030000806280938000D0938B00C0938A0024C0C9
:1003100084B5806884BDC7BD1FC08091800080689F
:1003200080938000D0938900C093880015C080918D
:10033000B00080688093B000C093B3000DC080917E
:10034000B00080628093B000C093B40005C0C03894
:10035000D1050CF0B8CFB2CFDF91CF9108953FB760
:10036000F8948091960290919702A0919802B09192
:10037000990226B5A89B05C02F3F19F00196A11D33
:10038000B11D3FBFBA2FA92F982F8827820F911D2B
:10039000A11DB11DBC01CD0142E0660F771F881F72
:1003A000991F4A95D1F708958F929F92AF92BF926D
:1003B000CF92DF92EF92FF926B017C010E94AF011E
:1003C0004B015C01C114D104E104F104F1F00E947D
:1003D000AF01DC01CB0188199909AA09BB09883E44
:1003E0009340A105B10570F321E0C21AD108E108DC
:1003F000F10888EE880E83E0981EA11CB11CC11480
:10040000D104E104F10419F7DDCFFF90EF90DF9004
:10041000CF90BF90AF909F908F900895CF92DF9232
:10042000EF92FF920F931F93CF93DF93CDB7DEB779
:10043000C054D1400FB6F894DEBF0FBECDBF2FB76A
:10044000F89480919A0290919B02A0919C02B091A5
:100450009D022FBF40914403509145036091460394
:10046000709147038C019D01041B150B260B370B64
:10047000B901A801403D57406105710518F480910C
:100480004C03CAC08093440390934503A093460352
:10049000B093470310923F0310923E0310923D0326
:1004A00010923C0310923B0362E0809140030E9453
:1004B000190161E070E080E090E00E94D40161E009
:1004C000809140030E94190160E0809140030E94E6
:1004D000CC00809141038551823028F48BE291E178
:1004E0000197F1F706C064E170E080E090E00E94BF
:1004F000D40162E0809140030E94190180914D0374
:1005000090E08230910538F0880F991F880F991F6D
:1005100005970197F1F7F89480E00E948C006F3FF7
:100520007F4F8F4F9F4F21F410924C03789441C01E
:1005300081E00E948C006F3F7F4F8F4F9F4FA1F350
:100540008E010F5F1F4F6E018FEBC81A8EEFD80A16
:10055000780180E00E948C00F701608371838283C0
:10056000938381E00E948C00F70164837583868306
:100570009783F8E0EF0EF11CEC14FD0451F778942A
:1005800020E030E0F801C080D180E280F380448137
:10059000558166817781FFEFCF16DF06EF06FF06F4
:1005A00031F04F3F8FEF58076807780721F410921A
:1005B0004C0380E031C0F90183E0F595E7958A9519
:1005C000E1F7E55CFC4F8081880FC416D506E6068E
:1005D000F70608F4816080832F5F3F4F085F1F4F4D
:1005E0002832310579F620913F0330E040913B03FA
:1005F00080913C0390E0840F911D40913D03840F56
:10060000911D40913E03840F911D992728173907AA
:1006100071F681E080934C03C05CDE4F0FB6F89416
:10062000DEBF0FBECDBFDF91CF911F910F91FF9025
:10063000EF90DF90CF90089580910A0290910B0285
:10064000019690930B0280930A0208950895CF9229
:10065000DF92EF92FF920F931F93CF93DF936C0182
:100660007A018B01C0E0D0E0CE15DF0581F0D80122
:100670006D918D01D601ED91FC910190F081E02DFD
:10068000C6010995892B11F02196EECF7E01C70195
:10069000DF91CF911F910F91FF90EF90DF90CF905E
:1006A0000895089580E090E00895FC01538D448DF5
:1006B000252F30E0842F90E0821B930B541710F00D
:1006C000CF96089501970895FC01918D828D98171A
:1006D00061F0828DDF01A80FB11D5D968C91928D26
:1006E0009F5F9F73928F90E008958FEF9FEF089523
:1006F000FC01918D828D981731F0828DE80FF11DEC
:10070000858D90E008958FEF9FEF0895FC01918D06
:10071000228D892F90E0805C9F4F821B91098F73FF
:10072000992708958EE992E00E94860321E0892BA3
:1007300009F420E0822F0895FC01848DDF01A80FC9
:10074000B11DA35ABF4F2C91848D90E001968F73F9
:100750009927848FA689B7892C93A089B1898C9118
:10076000837080648C93938D848D981306C0028867
:10077000F389E02D80818F7D80830895EF92FF9231
:100780000F931F93CF93DF93EC0181E0888F9B8DB4
:100790008C8D981305C0E889F989808185FD26C074
:1007A000F62E0B8D10E00F5F1F4F0F731127E02EF9
:1007B0008C8DE8120CC00FB607FCFACFE889F989D6
:1007C000808185FFF5CFCE010E949C03F1CF8B8DF8
:1007D000FE01E80FF11DE35AFF4FF0829FB7F89436
:1007E0000B8FEA89FB89808180620AC09FB7F894E9
:1007F000EE89FF896083E889F9898081837080644C
:1008000080839FBF81E090E0DF91CF911F910F9196
:10081000FF90EF900895CF93DF93EC01888D8823AC
:10082000C9F0EA89FB89808185FD05C0A889B9895D
:100830008C9186FD0FC00FB607FCF5CF808185FF38
:10084000F2CFA889B9898C9185FFEDCFCE010E94A6
:100850009C03E7CFDF91CF91089580E090E0892B52
:1008600029F00E94920381110C9400000895ECE29B
:10087000F2E01082118212821382148208954F9244
:100880005F926F927F928F929F92AF92BF92CF9220
:10089000DF92EF92FF92CF93DF9300D000D0CDB7DD
:1008A000DEB76091220270E080E090E00E94870D48
:1008B000209128023091290240912A0250912B0266
:1008C0000E946B0C6B017C01409014025090150249
:1008D000609016027090170220E030E04AE754E47E
:1008E000C301B2010E94DD0C20E030E048E453E493
:1008F0000E943C0E20911002309111024091120290
:10090000509113020E946C0C4B015C016093100229
:10091000709311028093120290931302C0921402FA
:10092000D0921502E0921602F092170220E030E019
:1009300040E05FE3C701B6010E943C0E69837A8301
:100940008B839C832DEC3CEC4CE45FE3C501B4014C
:100950000E943C0E9B01AC0169817A818B819C8154
:100960000E946C0C4B015C01A3019201C701B6010E
:100970000E946B0C20E030E048E453E40E94DD0C60
:1009800020E030E040E450E40E943C0E9B01AC01CA
:10099000C501B4010E946C0C6B017C0120E030E0C9
:1009A0004FE753E40E94370E18164CF0C0920C0229
:1009B000D0920D02E0920E02F0920F020CC080E085
:1009C00090E0AFE7B3E480930C0290930D02A09304
:1009D0000E02B0930F0220E030E0A90160910C02FA
:1009E00070910D0280910E0290910F020E94D80C1E
:1009F00087FF08C010920C0210920D0210920E0296
:100A000010920F0260910C0270910D0280910E0203
:100A100090910F020E94560D862F90E00F900F903C
:100A20000F900F90DF91CF91FF90EF90DF90CF90DC
:100A3000BF90AF909F908F907F906F905F904F90FE
:100A40000C945501CF92DF92EF92FF920F931F9378
:100A5000F89460910A0270910B0210920B021092AE
:100A60000A02789480E090E00E94850D6B017C0181
:100A70002FB7F89480919A0290919B02A0919C02CA
:100A8000B0919D022FBF0091240210912502209168
:100A9000260230912702BC01CD01601B710B820B35
:100AA000930B0E94850D9B01AC0160E070E68AE625
:100AB00097E40E94DD0CA70196010E943C0E20E005
:100AC00030EC4EE254E40E94DD0C609328027093F7
:100AD000290280932A0290932B0220E030EC4EE210
:100AE00054E4C701B6010E94DD0C9B01AC0160918A
:100AF0004C0270914D0280914E0290914F020E94E3
:100B00006C0C60934C0270934D0280934E02909354
:100B10004F021F910F91FF90EF90DF90CF900895BB
:100B200010920B0210920A021092240210922502D7
:100B30001092260210922702109228021092290287
:100B400010922A0210922B0210920C0210920D02A7
:100B500010920E0210920F021092100210921102C7
:100B600010921202109213021092140210921502A7
:100B7000109216021092170210924C0210924D021F
:100B800010924E0210924F020895009769F0FC01F6
:100B900001900020E9F73197AF01481B590BBC01C8
:100BA0008EE992E00C94270380E090E00895CF93C3
:100BB000DF930E94C505EC0188E191E00E94C50524
:100BC0008C0F9D1FDF91CF9108958F929F92AF92CE
:100BD000BF920F931F93CF93DF93CDB7DEB7A1974B
:100BE0000FB6F894DEBF0FBECDBF19A2423008F495
:100BF0004AE08E010F5D1F4F842E912CA12CB12C49
:100C0000A50194010E94430CE62FB901CA010150CD
:100C10001109EA3014F4E05D01C0E95CD801EC93FD
:100C2000232B242B252B61F7C8010E94C505A19613
:100C30000FB6F894DEBF0FBECDBFDF91CF911F91ED
:100C40000F91BF90AF909F908F9008958F929F9239
:100C5000AF92BF92CF92DF92EF92FF920F931F93CA
:100C6000CF93DF936B017C01142F9B01AC010E9499
:100C7000A90E882319F08BE191E027C046015701A6
:100C8000E894B7F82FEF3FEF4FE75FE7C501B401F6
:100C90000E94A90E81110DC02FEF3FEF4FE75FE7D4
:100CA000C501B4010E94D80C18161CF48FE191E024
:100CB0000CC02FEF3FEF4FE75FE4C701B6010E9482
:100CC000370E181684F483E291E0DF91CF911F91E3
:100CD0000F91FF90EF90DF90CF90BF90AF909F90DB
:100CE0008F900C94C5052FEF3FEF4FE75FECC701E6
:100CF000B6010E94D80C87FDE6CF20E030E0A901C4
:100D0000C701B6010E94D80C87FF0BC06DE28EE9C7
:100D100092E00E94BE03EC01F7FAF094F7F8F09429
:100D200002C0C0E0D0E000E060E070E080E09FE35F
:100D3000101741F020E030E040E251E40E94DD0C69
:100D40000F5FF6CFA70196010E946C0C6B017C012E
:100D50000E94560D4B015C014AE00E94E505C80F58
:100D6000D91F1123B9F1C501B4010E94850D9B0162
:100D7000AC01C701B6010E946B0C6B017C016EE2F5
:100D80008EE992E00E94BE03C80FD91F20E030E038
:100D900040E251E4C701B6010E943C0E4B015C01E8
:100DA0000E94560D6B01E12CF12C4AE0C701B601FF
:100DB0000E94E505C80FD91FC701B6010E94850D25
:100DC0009B01AC01C501B4010E946B0C6B017C015D
:100DD0001150E1F6CE01DF91CF911F910F91FF905D
:100DE000EF90DF90CF90BF90AF909F908F9008953D
:100DF000CF93DF9342E00E942606EC0188E191E068
:100E00000E94C5058C0F9D1FDF91CF9108950E9410
:100E1000AE0E1F920F920FB60F9211242F933F9395
:100E20008F939F93AF93BF9380919A0290919B026F
:100E3000A0919C02B0919D023091950223E0230F76
:100E40002D3720F40196A11DB11D05C026E8230F02
:100E50000296A11DB11D2093950280939A02909352
:100E60009B02A0939C02B0939D0280919602909168
:100E70009702A0919802B09199020196A11DB11D0F
:100E80008093960290939702A0939802B093990250
:100E9000BF91AF919F918F913F912F910F900FBE76
:100EA0000F901F9018951F920F920FB60F9211245A
:100EB0002F933F934F935F936F937F938F939F9362
:100EC000AF93BF93EF93FF93E0910201F091030181
:100ED0000995FF91EF91BF91AF919F918F917F9174
:100EE0006F915F914F913F912F910F900FBE0F9097
:100EF0001F9018951F920F920FB60F9211242F93E7
:100F00003F934F935F936F937F938F939F93AF9391
:100F1000BF93EF93FF93E0910001F09101010995D8
:100F2000FF91EF91BF91AF919F918F917F916F91C1
:100F30005F914F913F912F910F900FBE0F901F9097
:100F400018951F920F920FB60F9211242F933F9373
:100F50004F935F936F937F938F939F93AF93BF93C1
:100F6000EF93FF938EE992E00E949C03FF91EF9133
:100F7000BF91AF919F918F917F916F915F914F91B1
:100F80003F912F910F900FBE0F901F9018951F92B9
:100F90000F920FB60F9211242F938F939F93EF937D
:100FA000FF93E091AE02F091AF028081E091B40234
:100FB000F091B50282FD12C090818091B7028F5FDF
:100FC0008F732091B802821751F0E091B702F0E0E0
:100FD000E256FD4F958F8093B70201C08081FF914B
:100FE000EF919F918F912F910F900FBE0F901F90B7
:100FF0001895EEE9F2E01382128288EE93E0A0E009
:10100000B0E084839583A683B7838AE091E09183DF
:10101000808385EC90E09587848784EC90E09787C7
:10102000868780EC90E0918B808B81EC90E0938BB5
:10103000828B82EC90E0958B848B86EC90E0978B92
:10104000868B118E128E138E148EABE3B3E085E087
:1010500015968C93159786E116968C931697E3EB6D
:10106000F0E0E4911796EC931797EFE9F0E0E49144
:101070001896EC93189740E85EE360E070E01D96E8
:101080004D935D936D937C9350970895789484B5B8
:10109000826084BD84B5816084BD85B5826085BD74
:1010A00085B5816085BD80916E00816080936E0002
:1010B00010928100809181008260809381008091F4
:1010C00081008160809381008091800081608093A5
:1010D00080008091B10084608093B1008091B00065
:1010E00081608093B00080917A00846080937A0060
:1010F00080917A00826080937A0080917A0081608A
:1011000080937A0080917A00806880937A001092B0
:10111000C100E091AE02F091AF0282E08083E091E5
:10112000AA02F091AB021082E091AC02F091AD0204
:101130008FEC80831092B602E091B202F091B3027C
:1011400086E08083E091B002F091B10280818061FD
:101150008083E091B002F091B10280818860808349
:10116000E091B002F091B102808180688083E091CB
:10117000B002F091B10280818F7D808360E083E0D6
:101180000E94190161E086E00E94190161E087E098
:101190000E94190161E084E00E94190161E087E08A
:1011A0000E94CC0060E084E00E94CC008CE193E0DF
:1011B0009093030180930201809169008C60809379
:1011C0006900E99A62E0809140030E9419012FB7FB
:1011D000F89480919A0290919B02A0919C02B09108
:1011E0009D022FBF805D9740A109B1098093440300
:1011F00090934503A0934603B093470387E38093FE
:101200004D0377247394C3E0D0E044244394512CDD
:1012100005E010E044E0242E312C8EE992E00E949B
:10122000860320919402892B69F121112BC08EE94C
:1012300092E00E946403909119029923F1F0E091E9
:1012400018028E3379F0AE2FB0E0AC5ABD4F8C93BC
:10125000EF5FE03218F4E0931802DFCF2FE1209324
:101260001802DBCFF0E0EC5AFD4F10821092190209
:101270001092180270929402D0CF8C3371F6709253
:101280001902CBCF222389F164E572E084E792E072
:101290000E94BC0E67E271E084E792E00E940F0CAE
:1012A0007C01BC018CE292E00E94BC0E69E271E01C
:1012B000C7010E94B30E892BB1F467E271E080E0B0
:1012C00090E00E940F0C0E94F10B8093230267E2D2
:1012D00071E080E090E00E940F0C0E94F10B90936F
:1012E00051028093500210929402809104019091D7
:1012F00005018230910509F4EDC128F4009769F0E9
:101300000197A1F06BC28430910509F409C208F479
:10131000FEC1059709F411C261C20E9437048EE232
:1013200091E00E94D7057092530202C2809152024E
:10133000811104C00E94900570925202C0904C022C
:10134000D0904D02E0904E02F0904F02609150021A
:101350007091510280E090E00E94850DA7019601F6
:101360000E94D80C1816C4F0C701B6010E94F806F6
:10137000609150027091510280E090E04AE00E943A
:10138000E50588E191E00E94C50580E090E00E94BB
:1013900055010E943704B6C168E371E08CE292E027
:1013A0000E94B30E892B59F58DE391E00E94D70579
:1013B00080E090E00E94550160912802709129021E
:1013C00080912A0290912B020E944F0D161617064B
:1013D0007CF40E9422050E943F04609128027091D3
:1013E000290280912A0290912B020E94F806E4CFF4
:1013F00042E050E05093050140930401EFC161E5E4
:1014000071E08CE292E00E94B30E892B29F480E017
:1014100090E00E94550176C166E571E08CE292E0B1
:101420000E94B30E892B09F011C10E940E0288237D
:10143000D1F1809141038B30B0F18D30A8F085510E
:10144000823088F560913B0370913C0376276727D3
:10145000762780E090E00E94850D2DEC3CEC4CEC72
:101460005DE30E943C0E1CC060913C0370E080E094
:1014700090E00E94870D2DEC3CEC4CEC5DE30E946B
:101480003C0E6B017C0160913B0370E080E090E0DA
:101490000E94870D9B01AC01C701B6010E946C0C34
:1014A0004B015C0106C0812C912C20ECA22E2FE771
:1014B000B22E80921E0290921F02A0922002B09241
:1014C00021020E940E02882309F474C08091410316
:1014D0008C3009F448C018F48B30D1F06BC08551C2
:1014E000823008F067C060903D03662D6F7770E032
:1014F000762F662780913E03682B80E090E00E9463
:10150000850D2DEC3CEC4CEC5DE30E943C0E49C09B
:1015100060913D0370E080E090E00E94850D6B01DA
:101520007C0160903E0367FE0AC09B01AC0160E055
:1015300070E080E89FEB0E946B0C6B017C01662DD4
:101540006F7070E080E090E00E94870D2DEC3CEC25
:101550004CEC5DE30E943C0EA70196010E946C0CCE
:101560006B017C012DC060903D0360913E036F7064
:1015700070E080E090E00E94870D2DEC3CEC4CEC9C
:101580005DE30E943C0E6B017C01662D70E080E003
:1015900090E00E94850D9B01AC01C701B6010E943D
:1015A0006C0C6B017C0167FE0BC0F7FAF094F7F846
:1015B000F09406C0C12CD12C80ECE82E8FE7F82ED9
:1015C000C0921A02D0921B02E0921C02F0921D02FD
:1015D000A5019401C501B4010E94A90E882319F048
:1015E0008BE591E00AC0A7019601C701B6010E94F0
:1015F000A90E882321F081E791E00E94D7058BE8AE
:1016000091E00E94C50560911E0270911F028091B9
:1016100020029091210242E00E94260685E991E095
:101620000E94C50588E991E00E94C50560911A02F3
:1016300070911B0280911C0290911D0242E00E9459
:10164000260686EA91E00E94D7050CC06AEA71E09E
:101650008CE292E00E94B30E892B31F4C701B601EF
:101660000E94F8060E9437048FB7F894C0909A023F
:10167000D0909B02E0909C02F0909D028FBF8091E1
:10168000240290912502A0912602B0912702A70181
:101690009601281B390B4A0B5B0B283C3105410591
:1016A000510508F49BC00E9422050E943F04C0928D
:1016B0002402D0922502E0922602F0922702609145
:1016C0004C0270914D0280914E0290914F020E9407
:1016D000F80684C069E271E08CE292E00E94B30EE9
:1016E000892B39F450920501409204018FEA91E070
:1016F00062C061E571E08CE292E00E94B30E892B3A
:1017000009F06CC0D0930501C093040167C00E942A
:10171000370486EC91E00E94D7051092520208C06F
:101720008BED91E00E94D705109253020E94900524
:10173000109305010093040151C068EE71E08CE242
:1017400092E00E94B30E892B49F4809153028130BC
:1017500029F0109205011092040140C069E271E085
:101760008CE292E00E94B30E892B41F580915302E6
:10177000813021F5809123029BEF980F9330F0F494
:101780002091500230915102232BC1F0509205015B
:1017900040920401853021F432E83093220209C0DE
:1017A000863021F44CE84093220203C056E950935E
:1017B00022028DEE91E00E94D70510C064E072E035
:1017C0008CE292E00E94B30E892B41F48091530287
:1017D000813021F430920501209204010E942D04F1
:1017E0001CCDFC0188279927E89421912032E9F348
:1017F000293010F02E30C8F32B3241F02D3239F45D
:10180000689404C00E943B0C820F911D21912053CB
:101810002A30C0F31EF4909581959F4F08954EE4B1
:1018200053E00E94140C0895FA01A191B081009731
:1018300019F41097E1F0CD01DC01CD010D900020ED
:1018400011F4C00113C0FB012191222319F02015CE
:10185000D9F7F3CFFB012191201519F41E921196AF
:1018600006C02223C1F70D900020A1F7D001FA0194
:10187000A193B08308957AE0979F902D879F802D44
:10188000910D11240895A1E21A2EAA1BBB1BFD0184
:101890000DC0AA1FBB1FEE1FFF1FA217B307E4074F
:1018A000F50720F0A21BB30BE40BF50B661F771FA7
:1018B000881F991F1A9469F7609570958095909587
:1018C0009B01AC01BD01CF010895EE0FFF1F0590F4
:1018D000F491E02D09945058BB27AA270E94830C4D
:1018E0000C94FD0D0E94EF0D38F00E94F60D20F0D3
:1018F00039F49F3F19F426F40C94EC0D0EF4E095A6
:10190000E7FB0C94E60DE92F0E940E0E58F3BA1770
:10191000620773078407950720F079F4A6F50C9405
:10192000300E0EF4E0950B2EBA2FA02D0B01B9014D
:1019300090010C01CA01A0011124FF27591B99F045
:10194000593F50F4503E68F11A16F040A22F232F51
:10195000342F4427585FF3CF469537952795A795A1
:10196000F0405395C9F77EF41F16BA0B620B730B48
:10197000840BBAF09150A1F0FF0FBB1F661F771FB9
:10198000881FC2F70EC0BA0F621F731F841F48F46E
:10199000879577956795B795F7959E3F08F0B0CFF7
:1019A0009395880F08F09927EE0F979587950895DE
:1019B0000E94C20D08F481E008950E94F10C0C947D
:1019C000FD0D0E94F60D58F00E94EF0D40F029F435
:1019D0005F3F29F00C94E60D51110C94310E0C94DC
:1019E000EC0D0E940E0E68F39923B1F3552391F389
:1019F000951B550BBB27AA2762177307840738F07E
:101A00009F5F5F4F220F331F441FAA1FA9F335D0DA
:101A10000E2E3AF0E0E832D091505040E695001C8E
:101A2000CAF72BD0FE2F29D0660F771F881FBB1F48
:101A3000261737074807AB07B0E809F0BB0B802D26
:101A4000BF01FF2793585F4F3AF09E3F510578F052
:101A50000C94E60D0C94310E5F3FE4F3983ED4F302
:101A6000869577956795B795F7959F5FC9F7880F26
:101A7000911D9695879597F90895E1E0660F771F78
:101A8000881FBB1F621773078407BA0720F0621B09
:101A9000730B840BBA0BEE1F88F7E09508950E9434
:101AA000560D6894B1110C94310E08950E94160ED3
:101AB00088F09F5798F0B92F9927B751B0F0E1F00F
:101AC000660F771F881F991F1AF0BA95C9F714C0BF
:101AD000B13091F00E94300EB1E008950C94300EB8
:101AE000672F782F8827B85F39F0B93FCCF38695F8
:101AF00077956795B395D9F73EF490958095709555
:101B000061957F4F8F4F9F4F0895E89409C097FBD1
:101B10003EF490958095709561957F4F8F4F9F4FC4
:101B20009923A9F0F92F96E9BB279395F695879508
:101B300077956795B795F111F8CFFAF4BB0F11F4CB
:101B400060FF1BC06F5F7F4F8F4F9F4F16C0882372
:101B500011F096E911C0772321F09EE8872F762FA8
:101B600005C0662371F096E8862F70E060E02AF0E9
:101B70009A95660F771F881FDAF7880F96958795D5
:101B800097F90895990F0008550FAA0BE0E8FEEFAA
:101B900016161706E807F907C0F012161306E40731
:101BA000F50798F0621B730B840B950B39F40A262A
:101BB00061F0232B242B252B21F408950A2609F408
:101BC000A140A6958FEF811D811D089597F99F670C
:101BD00080E870E060E008959FEF80EC08950024B5
:101BE0000A941616170618060906089500240A9482
:101BF00012161306140605060895092E0394000C08
:101C000011F4882352F0BB0F40F4BF2B11F460FF96
:101C100004C06F5F7F4F8F4F9F4F089557FD9058BF
:101C2000440F551F59F05F3F71F04795880F97FBA0
:101C3000991F61F09F3F79F087950895121613065A
:101C40001406551FF2CF4695F1DF08C01616170689
:101C50001806991FF1CF86957105610508940895BE
:101C6000E894BB2766277727CB0197F908950E9450
:101C7000C20D08F48FEF08950E944F0E0C94FD0DD5
:101C80000E94EF0D38F00E94F60D20F0952311F020
:101C90000C94E60D0C94EC0D11240C94310E0E9462
:101CA0000E0E70F3959FC1F3950F50E0551F629F84
:101CB000F001729FBB27F00DB11D639FAA27F00DA5
:101CC000B11DAA1F649F6627B00DA11D661F829FCC
:101CD0002227B00DA11D621F739FB00DA11D621FB1
:101CE000839FA00D611D221F749F3327A00D611DCE
:101CF000231F849F600D211D822F762F6A2F1124B0
:101D00009F5750409AF0F1F088234AF0EE0FFF1FE2
:101D1000BB1F661F771F881F91505040A9F79E3F39
:101D2000510580F00C94E60D0C94310E5F3FE4F306
:101D3000983ED4F3869577956795B795F795E7958F
:101D40009F5FC1F7FE2B880F911D9695879597F998
:101D500008950E94C20D880B990B089581E090E0D0
:101D6000F8940C94C30EFB01DC018D910190801955
:101D70000110D9F3990B0895FB01DC0101900D923C
:0A1D80000020E1F70895F894FFCF6A
:101D8A0026032603050000000000BE0327035503AF
:101D9A000B048603640378030D0A006E616E006902
:101DAA006E66006F7666002C005354415200436FF2
:101DBA006E65637461646F005041555300457870D5
:101DCA006572696D656E746F207061757361646F99
:101DDA000053544F5000544D484D004572726F7273
:101DEA00206C6579656E646F2068756D65646164E1
:101DFA00004572726F72206C6579656E646F20742B
:101E0A00656D70657261747572610048756D65649F
:101E1A0061643A200025090054656D706572617429
:101E2A007572613A2000202A430053454E440052FD
:101E3A006573756D69656E646F2065787065726922
:101E4A006D656E746F004578706572696D656E7444
:101E5A006F20646574656E69646F00446573636FAF
:101E6A006E65637461646F00434F4E4E00436F6D3D
:101E7A00656E7A616E646F206578706572696D65EA
:0A1E8A006E746F0044434F4E0000D9
:00000001FF
