:100000000C9462000C9478070C9451070C948A00AD
:100010000C948A000C948A000C948A000C948A0038
:100020000C948A000C948A000C948A000C948A0028
:100030000C948A000C948A000C948A000C948A0018
:100040000C9407070C948A000C94C5070C949F0726
:100050000C948A000C948A000C948A000C948A00F8
:100060000C948A000C948A000000000024002700F1
:100070002A0000000000250028002B0000000008D6
:10008000000201000003040700000000000000005F
:1000900000000000230026002900040404040404D6
:1000A0000404020202020202030303030303010227
:1000B00004081020408001020408102001020408F6
:1000C0001020F70711241FBECFEFD8E0DEBFCDBF51
:1000D00023E0AEEFB1E001C01D92A534B207E1F715
:1000E00011E0A0E0B1E0ECE7FDE102C005900D9267
:1000F000AE3FB107D9F710E0C2E6D0E004C02197C7
:10010000FE010E945E0CC136D107C9F70E94440867
:100110000C94BC0E0C940000CF92DF92EF92FF92F1
:10012000CF93DF93B0913703882311F0AB2F01C039
:10013000A0E08091380390E0880F991F80579F4F6F
:10014000C0903D03D0903E03E0903F03F090400309
:1001500020E030E0FC01C591D491E881EB23A901B6
:1001600060E070E0EA130CC02F5F3F4F4C155D0557
:100170006E057F0578F33FEF2FEF8FEF9FEF03C002
:10018000322F252FCB01632F722FDF91CF91FF905C
:10019000EF90DF90CF90089590E0FC01E458FF4F7E
:1001A0002491FC01E255FF4F3491FC01E656FF4FCC
:1001B000E491EE2309F43CC0222339F1233091F07D
:1001C00038F42130A9F0223001F584B58F7D12C0BA
:1001D000273091F02830A1F02430B9F480918000CC
:1001E0008F7D03C0809180008F77809380000DC049
:1001F00084B58F7784BD09C08091B0008F7703C02C
:100200008091B0008F7D8093B000F0E0EE0FFF1F73
:10021000EE58FF4FA591B4919FB7F894611104C0B7
:100220008C913095382302C0EC913E2B3C939FBFBC
:100230000895CF93DF9390E0FC01E255FF4F2491A6
:10024000FC01E656FF4F8491882361F190E0880F0E
:10025000991FFC01E859FF4FC591D491FC01EE585C
:10026000FF4FA591B491611109C09FB7F89488819F
:10027000209582238883EC912E230BC0623061F499
:100280009FB7F8948881322F309583238883EC912F
:100290002E2B2C939FBF06C08FB7F894E8812E2B8E
:1002A00028838FBFDF91CF9108953FB7F894809155
:1002B0008F0290919002A0919102B091920226B586
:1002C000A89B05C02F3F19F00196A11DB11D3FBF8E
:1002D000BA2FA92F982F8827820F911DA11DB11D1C
:1002E000BC01CD0142E0660F771F881F991F4A9518
:1002F000D1F708958F929F92AF92BF92CF92DF92E3
:10030000EF92FF926B017C010E9455014B015C0151
:10031000C114D104E104F104F1F00E945501DC01A3
:10032000CB0188199909AA09BB09883E9340A10508
:10033000B10570F321E0C21AD108E108F10888EE96
:10034000880E83E0981EA11CB11CC114D104E104E5
:10035000F10419F7DDCFFF90EF90DF90CF90BF90C1
:10036000AF909F908F9008952FB7F89460918B0273
:1003700070918C0280918D0290918E022FBF089512
:10038000CF92DF92EF92FF920F931F93CF93DF9361
:10039000CDB7DEB7C054D1400FB6F894DEBF0FBE64
:1003A000CDBF0E94B4010091390310913A0320910E
:1003B0003B0330913C036B017C01C01AD10AE20A75
:1003C000F30A40EDC41647E0D406E104F10418F442
:1003D00080914103CAC06093390370933A038093BC
:1003E0003B0390933C03109234031092330310921A
:1003F0003203109231031092300362E08091350392
:100400000E94190161E070E080E090E00E947A01B2
:1004100061E0809135030E94190160E0809135030D
:100420000E94CC00809136038551823028F48BE203
:1004300091E10197F1F706C064E170E080E090E09F
:100440000E947A0162E0809135030E941901809137
:10045000420390E08230910538F0880F991F880F91
:10046000991F05970197F1F7F89480E00E948C009E
:100470006F3F7F4F8F4F9F4F21F41092410378942D
:1004800041C081E00E948C006F3F7F4F8F4F9F4F94
:10049000A1F38E010F5F1F4F6E012FEBC21A2EEFDB
:1004A000D20A780180E00E948C00F701608371839A
:1004B0008283938381E00E948C00F70164837583BB
:1004C00086839783F8E0EF0EF11CEC14FD0451F7DE
:1004D000789420E030E0F801C080D180E280F380A1
:1004E0004481558166817781FFEFCF16DF06EF06E5
:1004F000FF0631F04F3F8FEF58076807780721F468
:100500001092410380E031C0F90183E0F595E79551
:100510008A95E1F7E05DFC4F8081880FC416D5060F
:10052000E606F70608F4816080832F5F3F4F085F7F
:100530001F4F2832310579F62091340330E0409185
:1005400030038091310390E0840F911D409132037C
:10055000840F911D40913303840F911D9927281713
:10056000390771F681E080934103C05CDE4F0FB61E
:10057000F894DEBF0FBECDBFDF91CF911F910F91D9
:10058000FF90EF90DF90CF9008958091FE019091C1
:10059000FF0101969093FF018093FE010895089555
:1005A000CF92DF92EF92FF920F931F93CF93DF933F
:1005B0006C017A018B01C0E0D0E0CE15DF0581F03F
:1005C000D8016D918D01D601ED91FC910190F081E2
:1005D000E02DC6010995892B11F02196EECF7E0101
:1005E000C701DF91CF911F910F91FF90EF90DF90A6
:1005F000CF900895089580E090E00895FC01538D18
:10060000448D252F30E0842F90E0821B930B5417EC
:1006100010F0CF96089501970895FC01918D828D79
:10062000981761F0828DDF01A80FB11D5D968C9146
:10063000928D9F5F9F73928F90E008958FEF9FEF51
:100640000895FC01918D828D981731F0828DE80F0D
:10065000F11D858D90E008958FEF9FEF0895FC01C7
:10066000918D228D892F90E0805C9F4F821B910994
:100670008F739927089583E992E00E942F0321E068
:10068000892B09F420E0822F0895FC01848DDF017D
:10069000A80FB11DA35ABF4F2C91848D90E00196F5
:1006A0008F739927848FA689B7892C93A089B189E4
:1006B0008C91837080648C93938D848D981306C085
:1006C0000288F389E02D80818F7D80830895EF92E9
:1006D000FF920F931F93CF93DF93EC0181E0888FFC
:1006E0009B8D8C8D981305C0E889F989808185FDE3
:1006F00026C0F62E0B8D10E00F5F1F4F0F731127D2
:10070000E02E8C8DE8120CC00FB607FCFACFE889FA
:10071000F989808185FFF5CFCE010E944503F1CF95
:100720008B8DFE01E80FF11DE35AFF4FF0829FB75A
:10073000F8940B8FEA89FB89808180620AC09FB799
:10074000F894EE89FF896083E889F9898081837054
:10075000806480839FBF81E090E0DF91CF911F9103
:100760000F91FF90EF900895CF93DF93EC01888D68
:100770008823C9F0EA89FB89808185FD05C0A889A5
:10078000B9898C9186FD0FC00FB607FCF5CF80812B
:1007900085FFF2CFA889B9898C9185FFEDCFCE0175
:1007A0000E944503E7CFDF91CF91089580E090E06C
:1007B000892B29F00E943B0381110C9400000895BD
:1007C0004F925F926F927F928F929F92AF92BF9261
:1007D000CF92DF92EF92FF92CF93DF9300D000D0C1
:1007E000CDB7DEB76091400270914102072E000C38
:1007F000880B990B0E94800D20913C0230913D02A4
:1008000040913E0250913F020E94640C6B017C01BA
:10081000409008025090090260900A0270900B020A
:1008200020E030E04AE754E4C301B2010E94D60C54
:1008300020E030E048E453E40E94350E20910402A9
:100840003091050240910602509107020E94650C0A
:100850004B015C01609304027093050280930602D1
:1008600090930702C0920802D0920902E0920A0215
:10087000F0920B0220E030E040E05FE3C701B601F8
:100880000E94350E69837A838B839C832DEC3CEC2C
:100890004CE45FE3C501B4010E94350E9B01AC013D
:1008A00069817A818B819C810E94650C4B015C017E
:1008B000A3019201C701B6010E94640C20E030E060
:1008C00048E453E40E94D60C20E030E040E450E4D9
:1008D0000E94350E9B01AC01C501B4010E94650C5C
:1008E0006B017C0120E030E04FE753E40E94300EC2
:1008F00018164CF0C0920002D0920102E09202025F
:10090000F09203020CC080E090E0AFE7B3E4809384
:10091000000290930102A0930202B093030220E030
:1009200030E0A90160910002709101028091020201
:10093000909103020E94D10C87FF08C01092000220
:1009400010920102109202021092030260910002C2
:100950007091010280910202909103020E944F0D5A
:100960006983E62EF12C61E086E00E9419018981FD
:10097000811102C060E004C089818F3FB1F461E061
:1009800086E00F900F900F900F90DF91CF91FF9026
:10099000EF90DF90CF90BF90AF909F908F907F901F
:1009A0006F905F904F900C94CC00E2E8F0E0E491FF
:1009B000E33009F150F4E130C1F0E230C1F584B523
:1009C000806284BD898188BD38C0E730F1F0E830AD
:1009D00029F1E43061F5809180008062809380008D
:1009E000F0928B00E0928A0028C084B5806884BDB4
:1009F000898187BD22C080918000806880938000BB
:100A0000F0928900E092880018C08091B000806860
:100A10008093B00089818093B3000FC08091B000B3
:100A200080628093B00089818093B40006C080E822
:100A3000E816F1040CF0A3CF9DCF0F900F900F900C
:100A40000F90DF91CF91FF90EF90DF90CF90BF900C
:100A5000AF909F908F907F906F905F904F90089590
:100A6000CF92DF92EF92FF92F8946091FE01709125
:100A7000FF011092FF011092FE01789480E090E057
:100A80000E947E0D6B017C010E94B401209118022E
:100A900030911902621B730B80E090E00E947E0D82
:100AA0009B01AC0160E070E68AE697E40E94D60CF8
:100AB000A70196010E94350E20E030EC4EE254E48E
:100AC0000E94D60C60933C0270933D0280933E02DC
:100AD00090933F0220E030EC4EE254E4C701B601AF
:100AE0000E94D60C9B01AC016091420270914302BE
:100AF00080914402909145020E94650C60934202ED
:100B0000709343028093440290934502FF90EF90CC
:100B1000DF90CF9008951092FF011092FE01109285
:100B200019021092180210923C0210923D0210928B
:100B30003E0210923F0210920002109201021092A7
:100B40000202109203021092040210920502109207
:100B500006021092070210920802109209021092E7
:100B60000A0210920B02109242021092430210925B
:100B7000440210924502109217021092160210922F
:100B80004702109246020895009769F0FC01019017
:100B90000020E9F73197AF01481B590BBC0183E9ED
:100BA00092E00C94D00280E090E00895CF93DF9320
:100BB0000E94C405EC0189E191E00E94C4058C0FFC
:100BC0009D1FDF91CF9108952F923F924F925F9298
:100BD0006F927F928F929F92AF92BF92CF92DF924D
:100BE000EF92FF920F931F93CF93DF93CDB7DEB7B2
:100BF000A4970FB6F894DEBF0FBECDBF4B015C01CA
:100C0000F42E9B01AC010E94A20E882319F08CE106
:100C100091E027C024013501E89477F82FEF3FEFEA
:100C20004FE75FE7C301B2010E94A20E81110DC020
:100C30002FEF3FEF4FE75FE7C301B2010E94D10CF6
:100C400018161CF480E291E00CC02FEF3FEF4FE745
:100C50005FE4C501B4010E94300E18162CF484E242
:100C600091E00E94C405B8C02FEF3FEF4FE75FEC63
:100C7000C501B4010E94D10C87FDF1CF20E030E026
:100C8000A901C501B4010E94D10C87FF0BC06DE220
:100C900083E992E00E9467033C01B7FAB094B7F889
:100CA000B09402C0612C712C10E060E070E080E034
:100CB0009FE3F11641F020E030E040E251E40E9471
:100CC000D60C1F5FF6CFA50194010E94650C4B0165
:100CD0005C010E944F0D6AA3C72ED82EE92E19A2DF
:100CE000262F372F482F592F8E010F5D1F4F0BA333
:100CF0001CA39AE0292E312C412C512CCA01B90198
:100D0000A20191010E943C0C605DF80162938F0189
:100D1000211531054105510589F7CF010E94C40510
:100D20008301080F191FFF2009F455C06AA17C2D0B
:100D30008D2D9E2D0E947E0D9B01AC01C501B4013D
:100D40000E94640C4B015C016EE283E992E00E9418
:100D50006703080F191F8AE0282E312C412C512CD3
:100D600020E030E040E251E4C501B4010E94350EBC
:100D70004B015C010E944F0D9B0140E050E019A225
:100D8000CBA0DCA0762E3AA3642EE52ECA01B901D1
:100D9000A20191010E943C0C605DF60162936F011B
:100DA000211531054105510589F7CF010E94C40580
:100DB000080F191F672D7AA1862D9E2D0E947E0D8A
:100DC0009B01AC01C501B4010E94640C4B015C01A4
:100DD000FA94F110C5CFC801A4960FB6F894DEBFFF
:100DE0000FBECDBFDF91CF911F910F91FF90EF907C
:100DF000DF90CF90BF90AF909F908F907F906F903B
:100E00005F904F903F902F9008950E94A70E1F92E1
:100E10000F920FB60F9211242F933F938F939F93AE
:100E2000AF93BF9380918B0290918C02A0918D0221
:100E3000B0918E0230918A0223E0230F2D3720F4E7
:100E40000196A11DB11D05C026E8230F0296A11D24
:100E5000B11D20938A0280938B0290938C02A09301
:100E60008D02B0938E0280918F0290919002A0919A
:100E70009102B09192020196A11DB11D80938F0243
:100E800090939002A0939102B0939202BF91AF9180
:100E90009F918F913F912F910F900FBE0F901F90B8
:100EA00018951F920F920FB60F9211242F933F9314
:100EB0004F935F936F937F938F939F93AF93BF9362
:100EC000EF93FF93E0910201F09103010995FF91E7
:100ED000EF91BF91AF919F918F917F916F915F91B2
:100EE0004F913F912F910F900FBE0F901F9018952B
:100EF0001F920F920FB60F9211242F933F934F938F
:100F00005F936F937F938F939F93AF93BF93EF9371
:100F1000FF93E0910001F09101010995FF91EF919C
:100F2000BF91AF919F918F917F916F915F914F9101
:100F30003F912F910F900FBE0F901F9018951F9209
:100F40000F920FB60F9211242F933F934F935F93FD
:100F50006F937F938F939F93AF93BF93EF93FF9381
:100F600083E992E00E944503FF91EF91BF91AF9119
:100F70009F918F917F916F915F914F913F912F91B1
:100F80000F900FBE0F901F9018951F920F920FB6E3
:100F90000F9211242F938F939F93EF93FF93E091E0
:100FA000A302F091A4028081E091A902F091AA022B
:100FB00082FD12C090818091AC028F5F8F7320916F
:100FC000AD02821751F0E091AC02F0E0ED56FD4F1A
:100FD000958F8093AC0201C08081FF91EF919F912A
:100FE0008F912F910F900FBE0F901F901895E3E9EE
:100FF000F2E01382128288EE93E0A0E0B0E08483F6
:101000009583A683B7838BE091E09183808385EC01
:1010100090E09587848784EC90E09787868780ECC2
:1010200090E0918B808B81EC90E0938B828B82ECB3
:1010300090E0958B848B86EC90E0978B868B118E5D
:10104000128E138E148EA0E3B3E085E015968C9378
:10105000159786E116968C931697E3EBF0E0E491F2
:101060001796EC931797EFE9F0E0E4911896EC935C
:10107000189740E85EE360E070E01D964D935D9345
:101080006D937C9350970895789484B5826084BD65
:1010900084B5816084BD85B5826085BD85B581607C
:1010A00085BD80916E00816080936E0010928100FA
:1010B00080918100826080938100809181008160B5
:1010C0008093810080918000816080938000809176
:1010D000B10084608093B1008091B0008160809302
:1010E000B00080917A00846080937A0080917A00C9
:1010F000826080937A0080917A00816080937A0088
:1011000080917A00806880937A001092C100E0910B
:10111000A302F091A40282E08083E0919F02F0910B
:10112000A0021082E091A102F091A2028FEC8083D4
:101130001092AB02E091A702F091A80286E08083B2
:10114000E091A502F091A602808180618083E09108
:10115000A502F091A602808188608083E091A502BB
:10116000F091A602808180688083E091A502F091D1
:10117000A60280818F7D808360E083E00E94190158
:1011800061E086E00E94190161E087E00E94190198
:1011900061E084E00E94190161E087E00E94CC00D8
:1011A00060E084E00E94CC0085EC92E09093030123
:1011B00080930201809169008C6080936900E99AB4
:1011C00062E0809135030E9419010E94B401DC01A4
:1011D000CB01805D9740A109B109809339039093B9
:1011E0003A03A0933B03B0933C0387E3809342030D
:1011F000772473943FE1632E01E010E0C5E0D0E076
:1012000042E0242E312C83E992E00E942F032091AA
:1012100089021816190664F521112AC083E992E0A3
:101220000E940D0390910D029923E9F0E0910C02C8
:101230008E3371F0AE2FB0E0A75BBD4F8C93EF5FA4
:10124000E03218F4E0930C02DECF60920C02DBCFA8
:10125000F0E0E75BFD4F108210920D0210920C023D
:1012600070928902D0CF8C3371F670920D02CBCF81
:10127000222399F169E472E089E692E00E94B50EBA
:1012800068E271E089E692E00E94080C7C01BC01F2
:101290008CE192E00E94B50E6AE271E0C7010E9403
:1012A000AC0E892BC1F468E271E080E090E00E940E
:1012B000080C0E94EA0B909317028093160268E2D2
:1012C00071E080E090E00E94080C0E94EA0B90938D
:1012D0004702809346021092890280910501909105
:1012E00006018230910509F4ECC128F4009769F0F9
:1012F000019791F06CC28430910509F401C208F4A1
:10130000F8C1059709F409C262C28FE291E00E9418
:10131000D60570924802FCC1609146027091470266
:10132000072E000C880B990B0E94800D2091420221
:101330003091430240914402509145020E94D10CE9
:10134000181614F1109241021092400260913C0272
:1013500070913D0280913E0290913F020E94480DA3
:101360001616170674F40E9430050E94E003EECFB3
:1013700060E571E08CE192E00E94AC0E892B09F0EF
:1013800026C283E090E01FC280910401811102C057
:101390000E948B0569E371E08CE192E00E94AC0E43
:1013A000892B39F58EE391E00E94D60580914002A9
:1013B0009091410290931B0280931A021092410275
:1013C0001092400260913C0270913D0280913E0279
:1013D00090913F020E94480D161617062CF40E94A9
:1013E00030050E94E003EECF309206012092050105
:1013F000EEC160E571E08CE192E00E94AC0E892BB9
:10140000B9F4109241021092400260913C02709136
:101410003D0280913E0290913F020E94480D1616B7
:1014200017060CF0AECF0E9430050E94E003EDCF0E
:1014300065E571E08CE192E00E94AC0E892B09F029
:1014400011C10E94C0018823D1F1809136038B30F5
:10145000B0F18D30A8F08551823088F5609130036D
:101460007091310376276727762780E090E00E940D
:101470007E0D2DEC3CEC4CEC5DE30E94350E1CC067
:101480006091310370E080E090E00E94800D2DECCF
:101490003CEC4CEC5DE30E94350E6B017C016091ED
:1014A000300370E080E090E00E94800D9B01AC0171
:1014B000C701B6010E94650C4B015C0106C0812C7E
:1014C000912C20ECA22E2FE7B22E80921202909245
:1014D0001302A0921402B09215020E94C001882348
:1014E00009F474C0809136038C3009F448C018F4B4
:1014F0008B30D1F06BC08551823008F067C05090BE
:101500003203652D6F7770E0762F66278091330365
:10151000682B80E090E00E947E0D2DEC3CEC4CECC2
:101520005DE30E94350E49C06091320370E080E0B7
:1015300090E00E947E0D6B017C015090330357FEBA
:101540000AC09B01AC0160E070E080E89FEB0E9464
:10155000640C6B017C01652D6F7070E080E090E0A1
:101560000E94800D2DEC3CEC4CEC5DE30E94350EAE
:10157000A70196010E94650C6B017C012DC0509063
:101580003203609133036F7070E080E090E00E945E
:10159000800D2DEC3CEC4CEC5DE30E94350E6B01B4
:1015A0007C01652D70E080E090E00E947E0D9B0143
:1015B000AC01C701B6010E94650C6B017C0157FEAE
:1015C0000BC0F7FAF094F7F8F09406C0C12CD12CB8
:1015D00080ECE82E8FE7F82EC0920E02D0920F0218
:1015E000E0921002F0921102A5019401C501B4012C
:1015F0000E94A20E882319F08AE591E00AC0A70193
:101600009601C701B6010E94A20E882321F080E74F
:1016100091E00E94D6058AE891E00E94C40560919D
:10162000120270911302809114029091150242E00F
:101630000E94E40584E991E00E94C40587E991E0F5
:101640000E94C40560910E0270910F0280911002F9
:101650009091110242E00E94E40585EA91E00E9427
:10166000D60517C069EA71E08CE192E00E94AC0EE9
:10167000892B79F06091420270914302809144027B
:101680009091450242E00E94E40589E191E00E94C8
:10169000C4050E94B4012091180230911902AB01D7
:1016A000421B530B483C510508F491C00E94300581
:1016B0000E94E0030E94B401709319026093180223
:1016C00086C06AE271E08CE192E00E94AC0E892B48
:1016D00009F04ECE109306010093050180911A0285
:1016E00090911B0290934102809340028EEA91E018
:1016F00059C082EC91E00E94D6051092040108C006
:1017000085ED91E00E94D605109248020E948B055B
:10171000D0930601C09305015AC060EE71E08CE1E0
:1017200092E00E94AC0E892B49F4809148028130EE
:1017300029F0109206011092050149C06AE271E099
:101740008CE192E00E94AC0E892B79F580914802E1
:10175000813059F580911602909117029C01255015
:1017600031092330310508F52091460230914702B6
:1017700012161306D4F41093060100930501853068
:10178000910519F482E890E007C0069719F48CE8F7
:1017900090E002C086E990E090934102809340027D
:1017A00085EE91E00E94D60512C069EF71E08CE1F0
:1017B00092E00E94AC0E892B51F480914802813056
:1017C00031F484E090E090930601809305010E943B
:1017D000D60319CDFC0188279927E894219120325E
:1017E000E9F3293010F02E30C8F32B3241F02D32BE
:1017F00039F4689404C00E94340C820F911D219129
:1018000020532A30C0F31EF4909581959F4F089580
:1018100043E453E00E940D0C0895FA01A191B081B8
:10182000009719F41097E1F0CD01DC01CD010D9086
:10183000002011F4C00113C0FB012191222319F0F3
:101840002015D9F7F3CFFB012191201519F41E9231
:10185000119606C02223C1F70D900020A1F7D001F8
:10186000FA01A193B08308957AE0979F902D879F06
:10187000802D910D11240895A1E21A2EAA1BBB1BE5
:10188000FD010DC0AA1FBB1FEE1FFF1FA217B3074C
:10189000E407F50720F0A21BB30BE40BF50B661F62
:1018A000771F881F991F1A9469F760957095809526
:1018B00090959B01AC01BD01CF010895EE0FFF1F74
:1018C0000590F491E02D09945058BB27AA270E9457
:1018D0007C0C0C94F60D0E94E80D38F00E94EF0D80
:1018E00020F039F49F3F19F426F40C94E50D0EF422
:1018F000E095E7FB0C94DF0DE92F0E94070E58F3EB
:10190000BA17620773078407950720F079F4A6F5E4
:101910000C94290E0EF4E0950B2EBA2FA02D0B017E
:10192000B90190010C01CA01A0011124FF27591B24
:1019300099F0593F50F4503E68F11A16F040A22F2A
:10194000232F342F4427585FF3CF4695379527959B
:10195000A795F0405395C9F77EF41F16BA0B620B9A
:10196000730B840BBAF09150A1F0FF0FBB1F661FE1
:10197000771F881FC2F70EC0BA0F621F731F841F24
:1019800048F4879577956795B795F7959E3F08F04A
:10199000B0CF9395880F08F09927EE0F979587950C
:1019A00008950E94BB0D08F481E008950E94EA0C9E
:1019B0000C94F60D0E94EF0D58F00E94E80D40F0D7
:1019C00029F45F3F29F00C94DF0D51110C942A0E7D
:1019D0000C94E50D0E94070E68F39923B1F355238B
:1019E00091F3951B550BBB27AA2762177307840732
:1019F00038F09F5F5F4F220F331F441FAA1FA9F3C8
:101A000035D00E2E3AF0E0E832D091505040E695B5
:101A1000001CCAF72BD0FE2F29D0660F771F881F16
:101A2000BB1F261737074807AB07B0E809F0BB0B09
:101A3000802DBF01FF2793585F4F3AF09E3F51051D
:101A400078F00C94DF0D0C942A0E5F3FE4F3983E7F
:101A5000D4F3869577956795B795F7959F5FC9F706
:101A6000880F911D9695879597F90895E1E0660F87
:101A7000771F881FBB1F621773078407BA0720F000
:101A8000621B730B840BBA0BEE1F88F7E095089569
:101A90000E944F0D6894B1110C942A0E08950E9473
:101AA0000F0E88F09F5798F0B92F9927B751B0F0D3
:101AB000E1F0660F771F881F991F1AF0BA95C9F7D2
:101AC00014C0B13091F00E94290EB1E008950C9439
:101AD000290E672F782F8827B85F39F0B93FCCF3EC
:101AE000869577956795B395D9F73EF4909580954F
:101AF000709561957F4F8F4F9F4F0895E89409C06F
:101B000097FB3EF490958095709561957F4F8F4F30
:101B10009F4F9923A9F0F92F96E9BB279395F69546
:101B2000879577956795B795F111F8CFFAF4BB0FC4
:101B300011F460FF1BC06F5F7F4F8F4F9F4F16C028
:101B4000882311F096E911C0772321F09EE8872FB2
:101B5000762F05C0662371F096E8862F70E060E06E
:101B60002AF09A95660F771F881FDAF7880F9695E7
:101B7000879597F90895990F0008550FAA0BE0E88B
:101B8000FEEF16161706E807F907C0F0121613063F
:101B9000E407F50798F0621B730B840B950B39F47F
:101BA0000A2661F0232B242B252B21F408950A26E5
:101BB00009F4A140A6958FEF811D811D089597F925
:101BC0009F6780E870E060E008959FEF80EC0895E3
:101BD00000240A941616170618060906089500240C
:101BE0000A9412161306140605060895092E039486
:101BF000000C11F4882352F0BB0F40F4BF2B11F4FA
:101C000060FF04C06F5F7F4F8F4F9F4F089557FD58
:101C10009058440F551F59F05F3F71F04795880F5A
:101C200097FB991F61F09F3F79F0879508951216F1
:101C300013061406551FF2CF4695F1DF08C016169D
:101C400017061806991FF1CF86957105610508944E
:101C50000895E894BB2766277727CB0197F9089565
:101C60000E94BB0D08F48FEF08950E94480E0C945B
:101C7000F60D0E94E80D38F00E94EF0D20F095233C
:101C800011F00C94DF0D0C94E50D11240C942A0E28
:101C90000E94070E70F3959FC1F3950F50E0551FFA
:101CA000629FF001729FBB27F00DB11D639FAA27B1
:101CB000F00DB11DAA1F649F6627B00DA11D661F00
:101CC000829F2227B00DA11D621F739FB00DA11D21
:101CD000621F839FA00D611D221F749F3327A00DDB
:101CE000611D231F849F600D211D822F762F6A2F77
:101CF00011249F5750409AF0F1F088234AF0EE0FDC
:101D0000FF1FBB1F661F771F881F91505040A9F708
:101D10009E3F510580F00C94DF0D0C942A0E5F3F1E
:101D2000E4F3983ED4F3869577956795B795F79544
:101D3000E7959F5FC1F7FE2B880F911D96958795BC
:101D400097F908950E94BB0D880B990B089581E0C7
:101D500090E0F8940C94BC0EFB01DC018D91019095
:101D600080190110D9F3990B0895FB01DC01019052
:0C1D70000D920020E1F70895F894FFCFD9
:101D7C00CF02CF02010500000000006703D002FE75
:101D8C0002B4032F030D0321030D0A006E616E00D4
:101D9C00696E66006F7666002C0053544152004306
:101DAC006F6E6E65637465640050415553004578E1
:101DBC00706572696D656E74207061757365640011
:101DCC0053544F5000544D484D004572726F722061
:101DDC006C6579656E646F2068756D65646164000F
:101DEC004572726F72206C6579656E646F207465D4
:101DFC006D70657261747572610048756D656461B2
:101E0C00643A200025090054656D70657261747523
:101E1C0072613A2000202A430053454E440052651B
:101E2C0073756D696E67206578706572696D656E26
:101E3C0074004578706572696D656E742073746F8B
:101E4C007070656400446973636F6E6E65637400D3
:101E5C00434F4E4E004578706572696D656E742007
:0E1E6C007374617274696E670044434F4E00D8
:00000001FF
