:100000000C9462000C947F070C9458070C948A009F
:100010000C948A000C948A000C948A000C948A0038
:100020000C948A000C948A000C948A000C948A0028
:100030000C948A000C948A000C948A000C948A0018
:100040000C940E070C948A000C94CC070C94A60711
:100050000C948A000C948A000C948A000C948A00F8
:100060000C948A000C948A000000000024002700F1
:100070002A0000000000250028002B0000000008D6
:10008000000201000003040700000000000000005F
:1000900000000000230026002900040404040404D6
:1000A0000404020202020202030303030303010227
:1000B00004081020408001020408102001020408F6
:1000C0001020FE0711241FBECFEFD8E0DEBFCDBF4A
:1000D00023E0AAE0B2E001C01D92A035B207E1F72B
:1000E00012E0A0E0B1E0ECE7FDE102C005900D9266
:1000F000AA30B107D9F710E0C2E6D0E004C02197DA
:10010000FE010E945E0CC136D107C9F70E944B0860
:100110000C94BC0E0C940000CF92DF92EF92FF92F1
:10012000CF93DF93B0914203882311F0AB2F01C02E
:10013000A0E08091430390E0880F991F80579F4F64
:10014000C0904803D0904903E0904A03F0904B03DD
:1001500020E030E0FC01C591D491E881EB23A901B6
:1001600060E070E0EA130CC02F5F3F4F4C155D0557
:100170006E057F0578F33FEF2FEF8FEF9FEF03C002
:10018000322F252FCB01632F722FDF91CF91FF905C
:10019000EF90DF90CF90089590E0FC01E458FF4F7E
:1001A0002491FC01E255FF4F3491FC01E656FF4FCC
:1001B000E491EE2309F43CC0222339F1233091F07D
:1001C00038F42130A9F0223001F584B58F7D12C0BA
:1001D000273091F02830A1F02430B9F480918000CC
:1001E0008F7D03C0809180008F77809380000DC049
:1001F00084B58F7784BD09C08091B0008F7703C02C
:100200008091B0008F7D8093B000F0E0EE0FFF1F73
:10021000EE58FF4FA591B4919FB7F894611104C0B7
:100220008C913095382302C0EC913E2B3C939FBFBC
:100230000895CF93DF9390E0FC01E255FF4F2491A6
:10024000FC01E656FF4F8491882361F190E0880F0E
:10025000991FFC01E859FF4FC591D491FC01EE585C
:10026000FF4FA591B491611109C09FB7F89488819F
:10027000209582238883EC912E230BC0623061F499
:100280009FB7F8948881322F309583238883EC912F
:100290002E2B2C939FBF06C08FB7F894E8812E2B8E
:1002A00028838FBFDF91CF9108953FB7F894809155
:1002B0009A0290919B02A0919C02B0919D0226B55A
:1002C000A89B05C02F3F19F00196A11DB11D3FBF8E
:1002D000BA2FA92F982F8827820F911DA11DB11D1C
:1002E000BC01CD0142E0660F771F881F991F4A9518
:1002F000D1F708958F929F92AF92BF92CF92DF92E3
:10030000EF92FF926B017C010E9455014B015C0151
:10031000C114D104E104F104F1F00E945501DC01A3
:10032000CB0188199909AA09BB09883E9340A10508
:10033000B10570F321E0C21AD108E108F10888EE96
:10034000880E83E0981EA11CB11CC114D104E104E5
:10035000F10419F7DDCFFF90EF90DF90CF90BF90C1
:10036000AF909F908F9008952FB7F8946091960268
:100370007091970280919802909199022FBF0895F1
:10038000CF92DF92EF92FF920F931F93CF93DF9361
:10039000CDB7DEB7C054D1400FB6F894DEBF0FBE64
:1003A000CDBF0E94B40100914403109145032091F8
:1003B0004603309147036B017C01C01AD10AE20A5F
:1003C000F30A40EDC41647E0D406E104F10418F442
:1003D00080914C03CAC0609344037093450380939B
:1003E00046039093470310923F0310923E031092EE
:1003F0003D0310923C0310923B0362E08091400366
:100400000E94190161E070E080E090E00E947A01B2
:1004100061E0809140030E94190160E080914003F7
:100420000E94CC00809141038551823028F48BE2F8
:1004300091E10197F1F706C064E170E080E090E09F
:100440000E947A0162E0809140030E94190180912C
:100450004D0390E08230910538F0880F991F880F86
:10046000991F05970197F1F7F89480E00E948C009E
:100470006F3F7F4F8F4F9F4F21F410924C03789422
:1004800041C081E00E948C006F3F7F4F8F4F9F4F94
:10049000A1F38E010F5F1F4F6E012FEBC21A2EEFDB
:1004A000D20A780180E00E948C00F701608371839A
:1004B0008283938381E00E948C00F70164837583BB
:1004C00086839783F8E0EF0EF11CEC14FD0451F7DE
:1004D000789420E030E0F801C080D180E280F380A1
:1004E0004481558166817781FFEFCF16DF06EF06E5
:1004F000FF0631F04F3F8FEF58076807780721F468
:1005000010924C0380E031C0F90183E0F595E79546
:100510008A95E1F7E55CFC4F8081880FC416D5060B
:10052000E606F70608F4816080832F5F3F4F085F7F
:100530001F4F2832310579F620913F0330E040917A
:100540003B0380913C0390E0840F911D40913D035B
:10055000840F911D40913E03840F911D9927281708
:10056000390771F681E080934C03C05CDE4F0FB613
:10057000F894DEBF0FBECDBFDF91CF911F910F91D9
:10058000FF90EF90DF90CF90089580910A029091B4
:100590000B02019690930B0280930A02089508952E
:1005A000CF92DF92EF92FF920F931F93CF93DF933F
:1005B0006C017A018B01C0E0D0E0CE15DF0581F03F
:1005C000D8016D918D01D601ED91FC910190F081E2
:1005D000E02DC6010995892B11F02196EECF7E0101
:1005E000C701DF91CF911F910F91FF90EF90DF90A6
:1005F000CF900895089580E090E00895FC01538D18
:10060000448D252F30E0842F90E0821B930B5417EC
:1006100010F0CF96089501970895FC01918D828D79
:10062000981761F0828DDF01A80FB11D5D968C9146
:10063000928D9F5F9F73928F90E008958FEF9FEF51
:100640000895FC01918D828D981731F0828DE80F0D
:10065000F11D858D90E008958FEF9FEF0895FC01C7
:10066000918D228D892F90E0805C9F4F821B910994
:100670008F73992708958EE992E00E942F0321E05D
:10068000892B09F420E0822F0895FC01848DDF017D
:10069000A80FB11DA35ABF4F2C91848D90E00196F5
:1006A0008F739927848FA689B7892C93A089B189E4
:1006B0008C91837080648C93938D848D981306C085
:1006C0000288F389E02D80818F7D80830895EF92E9
:1006D000FF920F931F93CF93DF93EC0181E0888FFC
:1006E0009B8D8C8D981305C0E889F989808185FDE3
:1006F00026C0F62E0B8D10E00F5F1F4F0F731127D2
:10070000E02E8C8DE8120CC00FB607FCFACFE889FA
:10071000F989808185FFF5CFCE010E944503F1CF95
:100720008B8DFE01E80FF11DE35AFF4FF0829FB75A
:10073000F8940B8FEA89FB89808180620AC09FB799
:10074000F894EE89FF896083E889F9898081837054
:10075000806480839FBF81E090E0DF91CF911F9103
:100760000F91FF90EF900895CF93DF93EC01888D68
:100770008823C9F0EA89FB89808185FD05C0A889A5
:10078000B9898C9186FD0FC00FB607FCF5CF80812B
:1007900085FFF2CFA889B9898C9185FFEDCFCE0175
:1007A0000E944503E7CFDF91CF91089580E090E06C
:1007B000892B29F00E943B0381110C9400000895BD
:1007C0004F925F926F927F928F929F92AF92BF9261
:1007D000CF92DF92EF92FF92CF93DF9300D000D0C1
:1007E000CDB7DEB760914C0270E080E090E00E94EF
:1007F000800D209148023091490240914A02509167
:100800004B020E94640C6B017C01409014025090DA
:100810001502609016027090170220E030E04AE75F
:1008200054E4C301B2010E94D60C20E030E048E459
:1008300053E40E94350E2091100230911102409134
:100840001202509113020E94650C4B015C016093EF
:100850001002709311028093120290931302C092BF
:100860001402D0921502E0921602F092170220E0D4
:1008700030E040E05FE3C701B6010E94350E6983B6
:100880007A838B839C832DEC3CEC4CE45FE3C501C5
:10089000B4010E94350E9B01AC0169817A818B8184
:1008A0009C810E94650C4B015C01A3019201C70170
:1008B000B6010E94640C20E030E048E453E40E945A
:1008C000D60C20E030E040E450E40E94350E9B015D
:1008D000AC01C501B4010E94650C6B017C0120E0F4
:1008E00030E04FE753E40E94300E18164CF0C092EF
:1008F0000C02D0920D02E0920E02F0920F020CC098
:1009000080E090E0AFE7B3E480930C0290930D0297
:10091000A0930E02B0930F0220E030E0A901609195
:100920000C0270910D0280910E0290910F020E94B4
:10093000D10C87FF08C010920C0210920D02109289
:100940000E0210920F0260910C0270910D028091C4
:100950000E0290910F020E944F0D6983E62EF12C3A
:1009600061E086E00E9419018981811102C060E086
:1009700004C089818F3FB1F461E086E00F900F9051
:100980000F900F90DF91CF91FF90EF90DF90CF907D
:10099000BF90AF909F908F907F906F905F904F909F
:1009A0000C94CC00E2E8F0E0E491E33009F150F47B
:1009B000E130C1F0E230C1F584B5806284BD898147
:1009C00088BD38C0E730F1F0E83029F1E43061F556
:1009D00080918000806280938000F0928B00E09292
:1009E0008A0028C084B5806884BD898187BD22C003
:1009F00080918000806880938000F0928900E0926E
:100A0000880018C08091B00080688093B000898110
:100A10008093B3000FC08091B00080628093B000DB
:100A200089818093B40006C080E8E816F1040CF0D8
:100A3000A3CF9DCF0F900F900F900F90DF91CF918C
:100A4000FF90EF90DF90CF90BF90AF909F908F90EE
:100A50007F906F905F904F900895CF92DF92EF92CA
:100A6000FF920F931F93F89460910A0270910B020A
:100A700010920B0210920A02789480E090E00E949B
:100A80007E0D6B017C010E94B40100912302109144
:100A900024022091250230912602601B710B820BEB
:100AA000930B0E947E0D9B01AC0160E070E68AE62C
:100AB00097E40E94D60CA70196010E94350E20E013
:100AC00030EC4EE254E40E94D60C609348027093DE
:100AD000490280934A0290934B0220E030EC4EE2B0
:100AE00054E4C701B6010E94D60C9B01AC01609191
:100AF0004D0270914E0280914F02909150020E94DF
:100B0000650C60934D0270934E0280934F02909358
:100B100050021F910F91FF90EF90DF90CF900895BA
:100B200010920B0210920A021092230210922402D9
:100B30001092250210922602109248021092490249
:100B400010924A0210924B0210920C0210920D0267
:100B500010920E0210920F021092100210921102C7
:100B600010921202109213021092140210921502A7
:100B7000109216021092170210924D0210924E021D
:100B800010924F02109250021092220210925202C2
:100B9000109251020895009769F0FC010190002025
:100BA000E9F73197AF01481B590BBC018EE992E080
:100BB0000C94D00280E090E00895CF93DF930E94E0
:100BC000CB05EC0189E191E00E94CB058C0F9D1FC4
:100BD000DF91CF9108952F923F924F925F926F9243
:100BE0007F928F929F92AF92BF92CF92DF92EF92BD
:100BF000FF920F931F93CF93DF93CDB7DEB7A497E8
:100C00000FB6F894DEBF0FBECDBF4B015C01F42ED2
:100C10009B01AC010E94A20E882319F08CE191E0A7
:100C200027C024013501E89477F82FEF3FEF4FE715
:100C30005FE7C301B2010E94A20E81110DC02FEF28
:100C40003FEF4FE75FE7C301B2010E94D10C1816D6
:100C50001CF480E291E00CC02FEF3FEF4FE75FE420
:100C6000C501B4010E94300E18162CF484E291E004
:100C70000E94CB05B8C02FEF3FEF4FE75FECC501F7
:100C8000B4010E94D10C87FDF1CF20E030E0A90132
:100C9000C501B4010E94D10C87FF0BC06DE28EE943
:100CA00092E00E9467033C01B7FAB094B7F8B094A1
:100CB00002C0612C712C10E060E070E080E09FE3E6
:100CC000F11641F020E030E040E251E40E94D60C01
:100CD0001F5FF6CFA50194010E94650C4B015C01DA
:100CE0000E944F0D6AA3C72ED82EE92E19A2262FD7
:100CF000372F482F592F8E010F5D1F4F0BA31CA3B9
:100D00009AE0292E312C412C512CCA01B901A201A3
:100D100091010E943C0C605DF80162938F012115E6
:100D200031054105510589F7CF010E94CB058301AB
:100D3000080F191FFF2009F455C06AA17C2D8D2DC5
:100D40009E2D0E947E0D9B01AC01C501B4010E9445
:100D5000640C4B015C016EE28EE992E00E94670335
:100D6000080F191F8AE0282E312C412C512C20E02D
:100D700030E040E251E4C501B4010E94350E4B0160
:100D80005C010E944F0D9B0140E050E019A2CBA0F6
:100D9000DCA0762E3AA3642EE52ECA01B901A20189
:100DA00091010E943C0C605DF60162936F01211578
:100DB00031054105510589F7CF010E94CB05080F88
:100DC000191F672D7AA1862D9E2D0E947E0D9B01F5
:100DD000AC01C501B4010E94640C4B015C01FA94A2
:100DE000F110C5CFC801A4960FB6F894DEBF0FBEB0
:100DF000CDBFDF91CF911F910F91FF90EF90DF90CA
:100E0000CF90BF90AF909F908F907F906F905F90AA
:100E10004F903F902F9008950E94A70E1F920F921F
:100E20000FB60F9211242F933F938F939F93AF93FD
:100E3000BF938091960290919702A0919802B091F1
:100E400099023091950223E0230F2D3720F401966B
:100E5000A11DB11D05C026E8230F0296A11DB11DDD
:100E6000209395028093960290939702A093980204
:100E7000B093990280919A0290919B02A0919C025A
:100E8000B0919D020196A11DB11D80939A0290938D
:100E90009B02A0939C02B0939D02BF91AF919F9142
:100EA0008F913F912F910F900FBE0F901F9018952B
:100EB0001F920F920FB60F9211242F933F934F93CF
:100EC0005F936F937F938F939F93AF93BF93EF93B2
:100ED000FF93E0910201F09103010995FF91EF91D9
:100EE000BF91AF919F918F917F916F915F914F9142
:100EF0003F912F910F900FBE0F901F9018951F924A
:100F00000F920FB60F9211242F933F934F935F933D
:100F10006F937F938F939F93AF93BF93EF93FF93C1
:100F2000E0910001F09101010995FF91EF91BF91CE
:100F3000AF919F918F917F916F915F914F913F9171
:100F40002F910F900FBE0F901F9018951F920F9228
:100F50000FB60F9211242F933F934F935F936F938C
:100F60007F938F939F93AF93BF93EF93FF938EE9FC
:100F700092E00E944503FF91EF91BF91AF919F9145
:100F80008F917F916F915F914F913F912F910F9032
:100F90000FBE0F901F9018951F920F920FB60F92D1
:100FA00011242F938F939F93EF93FF93E091AE02C1
:100FB000F091AF028081E091B402F091B50282FD20
:100FC00012C090818091B7028F5F8F732091B80219
:100FD000821751F0E091B702F0E0E256FD4F958F95
:100FE0008093B70201C08081FF91EF919F918F9113
:100FF0002F910F900FBE0F901F901895EEE9F2E021
:101000001382128288EE93E0A0E0B0E0848395839F
:10101000A683B7838BE091E09183808385EC90E099
:101020009587848784EC90E09787868780EC90E0B2
:10103000918B808B81EC90E0938B828B82EC90E0A3
:10104000958B848B86EC90E0978B868B118E128E1D
:10105000138E148EABE3B3E085E015968C93159751
:1010600086E116968C931697E3EBF0E0E4911796E1
:10107000EC931797EFE9F0E0E4911896EC9318974A
:1010800040E85EE360E070E01D964D935D936D93E4
:101090007C9350970895789484B5826084BD84B51C
:1010A000816084BD85B5826085BD85B5816085BD63
:1010B00080916E00816080936E001092810080911B
:1010C00081008260809381008091810081608093A3
:1010D0008100809180008160809380008091B100C8
:1010E00084608093B1008091B00081608093B000F3
:1010F00080917A00846080937A0080917A00826087
:1011000080937A0080917A00816080937A00809148
:101110007A00806880937A001092C100E091AE025C
:10112000F091AF0282E08083E091AA02F091AB02DD
:101130001082E091AC02F091AD028FEC80831092AE
:10114000B602E091B202F091B30286E08083E091B2
:10115000B002F091B102808180618083E091B002A1
:10116000F091B102808188608083E091B002F091BB
:10117000B102808180688083E091B002F091B10279
:1011800080818F7D808360E083E00E94190161E0AF
:1011900086E00E94190161E087E00E94190161E088
:1011A00084E00E94190161E087E00E94CC0060E0C9
:1011B00084E00E94CC0085EC92E090930301809340
:1011C0000201809169008C6080936900E99A62E075
:1011D000809140030E9419010E94B401DC01CB01FF
:1011E000805D9740A109B109809344039093450322
:1011F000A0934603B093470387E380934D0311E028
:1012000022242394312C43E0642E712CC5E0D0E0DD
:1012100054E0452E512C8EE992E00E942F0320913C
:101220009402892B69F121112BC08EE992E00E9472
:101230000D03909119029923F1F0E09118028E3379
:1012400079F0AE2FB0E0AC5ABD4F8C93EF5FE03237
:1012500018F4E0931802DFCF8FE180931802DBCF00
:10126000F0E0EC5AFD4F1082109219021092180211
:1012700010939402D0CF8C3371F610931902CBCF18
:10128000222389F164E572E084E792E00E94B50EC2
:1012900068E271E084E792E00E94080C7C01BC01E6
:1012A00088E292E00E94B50E6AE271E0C7010E94F6
:1012B000AC0E892BB1F468E271E080E090E00E940E
:1012C000080C0E94EA0B8093220268E271E080E041
:1012D00090E00E94080C0E94EA0B909352028093C7
:1012E0005102109294028091050190910601823082
:1012F000910509F4F5C128F4009769F0019791F080
:1013000066C28430910509F406C208F4FDC1059750
:1013100009F40EC25CC28FE291E00E94DD051093D9
:10132000530201C2609151027091520280E090E03C
:101330000E947E0D20914D0230914E0240914F024D
:10134000509150020E94D10C181614F110924C02C8
:10135000609148027091490280914A0290914B023B
:101360000E94480D1616170674F40E942D050E945F
:10137000E003EECF62E571E088E292E00E94AC0EFD
:10138000892B09F024C270920601609205011FC2E8
:1013900080910401811102C00E94900569E371E00F
:1013A00088E292E00E94AC0E892B19F58EE391E061
:1013B0000E94DD0580914C028093270210924C021E
:1013C000609148027091490280914A0290914B02CB
:1013D0000E94480D161617062CF40E942D050E9437
:1013E000E003EECF82E090E0909306018093050148
:1013F000EEC162E571E088E292E00E94AC0E892BBA
:10140000A9F410924C0260914802709149028091B7
:101410004A0290914B020E94480D161617060CF0D6
:10142000B2CF0E942D050E94E003EDCF67E571E089
:1014300088E292E00E94AC0E892B09F011C10E9453
:10144000C0018823D1F1809141038B30B0F18D3000
:10145000A8F08551823088F560913B0370913C0380
:1014600076276727762780E090E00E947E0D2DEC9E
:101470003CEC4CEC5DE30E94350E1CC060913C03DB
:1014800070E080E090E00E94800D2DEC3CEC4CEC94
:101490005DE30E94350E6B017C0160913B0370E0BF
:1014A00080E090E00E94800D9B01AC01C701B60175
:1014B0000E94650C4B015C0106C0812C912C20EC34
:1014C000A22E2FE7B22E80921E0290921F02A092AF
:1014D0002002B09221020E94C001882309F474C046
:1014E000809141038C3009F448C018F48B30D1F05E
:1014F0006BC08551823008F067C000913D03602FBA
:101500006F7770E0762F662780913E03682B80E02E
:1015100090E00E947E0D2DEC3CEC4CEC5DE30E94D3
:10152000350E49C060913D0370E080E090E00E947C
:101530007E0D6B017C0100913E0307FF0AC09B01F9
:10154000AC0160E070E080E89FEB0E94640C6B01EE
:101550007C01602F6F7070E080E090E00E94800D51
:101560002DEC3CEC4CEC5DE30E94350EA70196019E
:101570000E94650C6B017C012DC000913D036091C0
:101580003E036F7070E080E090E00E94800D2DECD3
:101590003CEC4CEC5DE30E94350E6B017C01602F4E
:1015A00070E080E090E00E947E0D9B01AC01C701DD
:1015B000B6010E94650C6B017C0107FF0BC0F7FAB6
:1015C000F094F7F8F09406C0C12CD12C80ECE82EF2
:1015D0008FE7F82EC0921A02D0921B02E0921C02F2
:1015E000F0921D02A5019401C501B4010E94A20E52
:1015F000882319F08CE591E00AC0A7019601C70184
:10160000B6010E94A20E882321F082E791E00E9499
:10161000DD058CE891E00E94CB0560911E0270917F
:101620001F02809120029091210242E00E94EB056E
:1016300086E991E00E94CB0589E991E00E94CB0503
:1016400060911A0270911B0280911C0290911D0200
:1016500042E00E94EB0587EA91E00E94DD0517C099
:101660006BEA71E088E292E00E94AC0E892B79F07F
:1016700060914D0270914E0280914F029091500204
:1016800042E00E94EB0589E191E00E94CB050E94B7
:10169000B401C0902302D0902402E0902502F09083
:1016A0002602DC01CB018C199D09AE09BF09883CDB
:1016B0009105A105B10508F48AC00E942D050E947C
:1016C000E0030E94B401DC01CB01AA27BB27809371
:1016D000230290932402A0932502B093260277C0A0
:1016E0006AE271E088E292E00E94AC0E892B09F078
:1016F00041CE30920601209205018091270280930D
:101700004C0280EB91E050C087EC91E00E94DD0537
:101710001092040108C08CED91E00E94DD0510924A
:1017200053020E949005D0930601C09305014FC05B
:1017300069EE71E088E292E00E94AC0E892B49F4D8
:1017400080915302813029F0109206011092050118
:101750003EC06AE271E088E292E00E94AC0E892B02
:1017600031F580915302813011F5809122029BEF77
:10177000980F9330E0F42091510230915202232BC4
:10178000B1F03092060120920501853011F492E803
:1017900007C0863021F48CE880934C0203C096E9A0
:1017A00090934C028EEE91E00E94DD0510C065E042
:1017B00072E088E292E00E94AC0E892B41F48091A5
:1017C0005302813021F450920601409205010E949B
:1017D000D60321CDFC0188279927E8942191203256
:1017E000E9F3293010F02E30C8F32B3241F02D32BE
:1017F00039F4689404C00E94340C820F911D219129
:1018000020532A30C0F31EF4909581959F4F089580
:101810004EE453E00E940D0C0895FA01A191B081AD
:10182000009719F41097E1F0CD01DC01CD010D9086
:10183000002011F4C00113C0FB012191222319F0F3
:101840002015D9F7F3CFFB012191201519F41E9231
:10185000119606C02223C1F70D900020A1F7D001F8
:10186000FA01A193B08308957AE0979F902D879F06
:10187000802D910D11240895A1E21A2EAA1BBB1BE5
:10188000FD010DC0AA1FBB1FEE1FFF1FA217B3074C
:10189000E407F50720F0A21BB30BE40BF50B661F62
:1018A000771F881F991F1A9469F760957095809526
:1018B00090959B01AC01BD01CF010895EE0FFF1F74
:1018C0000590F491E02D09945058BB27AA270E9457
:1018D0007C0C0C94F60D0E94E80D38F00E94EF0D80
:1018E00020F039F49F3F19F426F40C94E50D0EF422
:1018F000E095E7FB0C94DF0DE92F0E94070E58F3EB
:10190000BA17620773078407950720F079F4A6F5E4
:101910000C94290E0EF4E0950B2EBA2FA02D0B017E
:10192000B90190010C01CA01A0011124FF27591B24
:1019300099F0593F50F4503E68F11A16F040A22F2A
:10194000232F342F4427585FF3CF4695379527959B
:10195000A795F0405395C9F77EF41F16BA0B620B9A
:10196000730B840BBAF09150A1F0FF0FBB1F661FE1
:10197000771F881FC2F70EC0BA0F621F731F841F24
:1019800048F4879577956795B795F7959E3F08F04A
:10199000B0CF9395880F08F09927EE0F979587950C
:1019A00008950E94BB0D08F481E008950E94EA0C9E
:1019B0000C94F60D0E94EF0D58F00E94E80D40F0D7
:1019C00029F45F3F29F00C94DF0D51110C942A0E7D
:1019D0000C94E50D0E94070E68F39923B1F355238B
:1019E00091F3951B550BBB27AA2762177307840732
:1019F00038F09F5F5F4F220F331F441FAA1FA9F3C8
:101A000035D00E2E3AF0E0E832D091505040E695B5
:101A1000001CCAF72BD0FE2F29D0660F771F881F16
:101A2000BB1F261737074807AB07B0E809F0BB0B09
:101A3000802DBF01FF2793585F4F3AF09E3F51051D
:101A400078F00C94DF0D0C942A0E5F3FE4F3983E7F
:101A5000D4F3869577956795B795F7959F5FC9F706
:101A6000880F911D9695879597F90895E1E0660F87
:101A7000771F881FBB1F621773078407BA0720F000
:101A8000621B730B840BBA0BEE1F88F7E095089569
:101A90000E944F0D6894B1110C942A0E08950E9473
:101AA0000F0E88F09F5798F0B92F9927B751B0F0D3
:101AB000E1F0660F771F881F991F1AF0BA95C9F7D2
:101AC00014C0B13091F00E94290EB1E008950C9439
:101AD000290E672F782F8827B85F39F0B93FCCF3EC
:101AE000869577956795B395D9F73EF4909580954F
:101AF000709561957F4F8F4F9F4F0895E89409C06F
:101B000097FB3EF490958095709561957F4F8F4F30
:101B10009F4F9923A9F0F92F96E9BB279395F69546
:101B2000879577956795B795F111F8CFFAF4BB0FC4
:101B300011F460FF1BC06F5F7F4F8F4F9F4F16C028
:101B4000882311F096E911C0772321F09EE8872FB2
:101B5000762F05C0662371F096E8862F70E060E06E
:101B60002AF09A95660F771F881FDAF7880F9695E7
:101B7000879597F90895990F0008550FAA0BE0E88B
:101B8000FEEF16161706E807F907C0F0121613063F
:101B9000E407F50798F0621B730B840B950B39F47F
:101BA0000A2661F0232B242B252B21F408950A26E5
:101BB00009F4A140A6958FEF811D811D089597F925
:101BC0009F6780E870E060E008959FEF80EC0895E3
:101BD00000240A941616170618060906089500240C
:101BE0000A9412161306140605060895092E039486
:101BF000000C11F4882352F0BB0F40F4BF2B11F4FA
:101C000060FF04C06F5F7F4F8F4F9F4F089557FD58
:101C10009058440F551F59F05F3F71F04795880F5A
:101C200097FB991F61F09F3F79F0879508951216F1
:101C300013061406551FF2CF4695F1DF08C016169D
:101C400017061806991FF1CF86957105610508944E
:101C50000895E894BB2766277727CB0197F9089565
:101C60000E94BB0D08F48FEF08950E94480E0C945B
:101C7000F60D0E94E80D38F00E94EF0D20F095233C
:101C800011F00C94DF0D0C94E50D11240C942A0E28
:101C90000E94070E70F3959FC1F3950F50E0551FFA
:101CA000629FF001729FBB27F00DB11D639FAA27B1
:101CB000F00DB11DAA1F649F6627B00DA11D661F00
:101CC000829F2227B00DA11D621F739FB00DA11D21
:101CD000621F839FA00D611D221F749F3327A00DDB
:101CE000611D231F849F600D211D822F762F6A2F77
:101CF00011249F5750409AF0F1F088234AF0EE0FDC
:101D0000FF1FBB1F661F771F881F91505040A9F708
:101D10009E3F510580F00C94DF0D0C942A0E5F3F1E
:101D2000E4F3983ED4F3869577956795B795F79544
:101D3000E7959F5FC1F7FE2B880F911D96958795BC
:101D400097F908950E94BB0D880B990B089581E0C7
:101D500090E0F8940C94BC0EFB01DC018D91019095
:101D600080190110D9F3990B0895FB01DC01019052
:0C1D70000D920020E1F70895F894FFCFD9
:101D7C00CF02CF02010500000000006703D002FE75
:101D8C0002B4032F030D0321030D0A006E616E00D4
:101D9C00696E66006F7666002C0053544152004306
:101DAC006F6E65637461646F0050415553004578E4
:101DBC00706572696D656E746F20706175736164A6
:101DCC006F0053544F5000544D484D004572726F84
:101DDC0072206C6579656E646F2068756D656461E1
:101DEC0064004572726F72206C6579656E646F2049
:101DFC0074656D70657261747572610048756D659E
:101E0C006461643A200025090054656D7065726147
:101E1C00747572613A2000202A430053454E4400E9
:101E2C00526573756D69656E646F20657870657247
:101E3C00696D656E746F004578706572696D656E5D
:101E4C00746F20646574656E69646F0044657363B8
:101E5C006F6E65637461646F00434F4E4E00436F49
:101E6C006D656E7A616E646F206578706572696DF0
:0A1E7C00656E746F0044434F4E0082
:00000001FF
