:100000000C9469000C9421060C94FA050C94910050
:100010000C9491000C9491000C9491000C9491001C
:100020000C9491000C9491000C9491000C9491000C
:100030000C9491000C9491000C9491000C949100FC
:100040000C94B0050C9491000C946E060C94480628
:100050000C9491000C9491000C9491000C949100DC
:100060000C9491000C9491002B083608000B190B8E
:10007000260B310BA40B00000000240027002A00EF
:1000800000000000250028002B00000000002300D5
:1000900026002900000000080002010000030407F8
:1000A0000000000000000000040404040404040430
:1000B0000202020202020303030303030102040813
:1000C00010204080010204081020010204081020C2
:1000D000A00611241FBECFEFD8E0DEBFCDBF22E0C7
:1000E000AAE5B1E001C01D92A13AB207E1F711E023
:1000F000A0E0B1E0E8E4FDE102C005900D92AA3570
:10010000B107D9F710E0C9E6D0E004C02197FE019D
:100110000E94440CC836D107C9F70E94ED060C9422
:10012000A20E0C940000CF92DF92EF92FF92CF9339
:10013000DF93B0919302882311F0AB2F01C0A0E0B0
:100140008091940290E0880F991F86579F4FC0902E
:100150009902D0909A02E0909B02F0909C0220E0DD
:1001600030E0FC01C591D491E881EB23A90160E066
:1001700070E0EA130CC02F5F3F4F4C155D056E0514
:100180007F0578F33FEF2FEF8FEF9FEF03C0322F04
:10019000252FCB01632F722FDF91CF91FF90EF902E
:1001A000DF90CF90089590E0FC01EC56FF4F249132
:1001B000FC01E454FF4F3491FC01E855FF4FE491FA
:1001C000EE2309F43CC0222339F1233091F038F4B6
:1001D0002130A9F0223001F584B58F7D12C027307F
:1001E00091F02830A1F02430B9F4809180008F7D07
:1001F00003C0809180008F77809380000DC084B50C
:100200008F7784BD09C08091B0008F7703C0809143
:10021000B0008F7D8093B000F0E0EE0FFF1FE0583C
:10022000FF4FA591B4919FB7F894611104C08C91D0
:100230003095382302C0EC913E2B3C939FBF08952C
:10024000CF93DF9390E0FC01E454FF4F2491FC0135
:10025000E855FF4F8491882361F190E0880F991F42
:10026000FC01EA58FF4FC591D491FC01E058FF4FC3
:10027000A591B491611109C09FB7F8948881209528
:1002800082238883EC912E230BC0623061F49FB7E8
:10029000F8948881322F309583238883EC912E2B1C
:1002A0002C939FBF06C08FB7F894E8812E2B28832C
:1002B0008FBFDF91CF910895CF93DF93EC0161E081
:1002C00086E00E942001209711F460E004C0CF3F37
:1002D000D10531F461E086E0DF91CF910C94D30039
:1002E000EAE9F0E0E491E330F9F048F4E130B9F004
:1002F000E230A1F584B5806284BDC8BD34C0E7306A
:10030000E9F0E83019F1E43049F58091800080622D
:1003100080938000D0938B00C0938A0024C084B562
:10032000806884BDC7BD1FC08091800080688093B5
:100330008000D0938900C093880015C08091B000E0
:1003400080688093B000C093B3000DC08091B0006E
:1003500080628093B000C093B40005C0C038D1055E
:100360000CF0B8CFB2CFDF91CF9108953FB7F8949A
:100370008091E7019091E801A091E901B091EA0133
:1003800026B5A89B05C02F3F19F00196A11DB11DF0
:100390003FBFBA2FA92F982F8827820F911DA11D2B
:1003A000B11DBC01CD0142E0660F771F881F991F68
:1003B0004A95D1F708958F929F92AF92BF92CF92B4
:1003C000DF92EF92FF926B017C010E94B6014B011C
:1003D0005C01C114D104E104F104F1F00E94B60102
:1003E000DC01CB0188199909AA09BB09883E934011
:1003F000A105B10570F321E0C21AD108E108F108A6
:1004000088EE880E83E0981EA11CB11CC114D10493
:10041000E104F10419F7DDCFFF90EF90DF90CF906A
:10042000BF90AF909F908F900895CF92DF92EF9200
:10043000FF920F931F93CF93DF93CDB7DEB7C054D6
:10044000D1400FB6F894DEBF0FBECDBF2FB7F894E2
:100450008091EB019091EC01A091ED01B091EE0142
:100460002FBF409195025091960260919702709132
:1004700098028C019D01041B150B260B370BB9014B
:10048000A801403D57406105710518F480919D0217
:10049000CAC08093950290939602A0939702B0935E
:1004A00098021092900210928F0210928E02109277
:1004B0008D0210928C0262E0809191020E942001D4
:1004C00061E070E080E090E00E94DB0161E08091FB
:1004D00091020E94200160E0809191020E94D3006D
:1004E000809192028551823028F48BE291E101974C
:1004F000F1F706C064E170E080E090E00E94DB016B
:1005000062E0809191020E94200180919E0290E021
:100510008230910538F0880F991F880F991F059731
:100520000197F1F7F89480E00E9493006F3F7F4FAE
:100530008F4F9F4F21F410929D02789441C081E02B
:100540000E9493006F3F7F4F8F4F9F4FA1F38E010B
:100550000F5F1F4F6E018FEBC81A8EEFD80A78011C
:1005600080E00E949300F70160837183828393830C
:1005700081E00E949300F7016483758386839783EB
:10058000F8E0EF0EF11CEC14FD0451F7789420E034
:1005900030E0F801C080D180E280F3804481558151
:1005A00066817781FFEFCF16DF06EF06FF0631F099
:1005B0004F3F8FEF58076807780721F410929D028C
:1005C00080E031C0F90183E0F595E7958A95E1F780
:1005D000E457FD4F8081880FC416D506E606F7065E
:1005E00008F4816080832F5F3F4F085F1F4F2832E0
:1005F000310579F62091900230E040918C02809193
:100600008D0290E0840F911D40918E02840F911D08
:1006100040918F02840F911D99272817390771F691
:1006200081E080939D02C05CDE4F0FB6F894DEBF80
:100630000FBECDBFDF91CF911F910F91FF90EF9033
:10064000DF90CF90089580916401909165010196AB
:10065000909365018093640108950895CF92DF928D
:10066000EF92FF920F931F93CF93DF936C017A0168
:100670008B01C0E0D0E0CE15DF0581F0D8016D918F
:100680008D01D601ED91FC910190F081E02DC60124
:100690000995892B11F02196EECF7E01C701DF91DC
:1006A000CF911F910F91FF90EF90DF90CF90089521
:1006B000089580E090E00895FC01538D448D252F2E
:1006C00030E0842F90E0821B930B541710F0CF96EC
:1006D000089501970895FC01918D828D981761F01E
:1006E000828DDF01A80FB11D5D968C91928D9F5F69
:1006F0009F73928F90E008958FEF9FEF0895FC0114
:10070000918D828D981731F0828DE80FF11D858DC6
:1007100090E008958FEF9FEF0895FC01918D228D59
:10072000892F90E0805C9F4F821B91098F739927DE
:1007300008958FEE91E00E948D0321E0892B09F44A
:1007400020E0822F0895FC01848DDF01A80FB11DE8
:10075000A35ABF4F2C91848D90E001968F739927F7
:10076000848FA689B7892C93A089B1898C918370D5
:1007700080648C93938D848D981306C00288F389CE
:10078000E02D80818F7D80830895EF92FF920F93FB
:100790001F93CF93DF93EC0181E0888F9B8D8C8D2D
:1007A000981305C0E889F989808185FD26C0F62E59
:1007B0000B8D10E00F5F1F4F0F731127E02E8C8DF4
:1007C000E8120CC00FB607FCFACFE889F9898081DE
:1007D00085FFF5CFCE010E94A303F1CF8B8DFE01E3
:1007E000E80FF11DE35AFF4FF0829FB7F8940B8F8B
:1007F000EA89FB89808180620AC09FB7F894EE89FC
:10080000FF896083E889F9898081837080648083AF
:100810009FBF81E090E0DF91CF911F910F91FF90FA
:10082000EF900895CF93DF93EC01888D8823C9F072
:10083000EA89FB89808185FD05C0A889B9898C91E9
:1008400086FD0FC00FB607FCF5CF808185FFF2CF84
:10085000A889B9898C9185FFEDCFCE010E94A303B1
:10086000E7CFDF91CF91089580E090E0892B29F0C8
:100870000E94990381110C9400000895EDE7F1E0C6
:1008800010821182128213821482089510926501DF
:10089000109264011092790110927A0110927B01FA
:1008A00010927C01109272011092730110927401E7
:1008B0001092750110926601109267011092680102
:1008C0001092690110926A0110926B0110926C01F2
:1008D00010926D0110926E0110926F0110927001D2
:1008E0001092710110929D0110929E0110929F0131
:1008F0001092A0010895009769F0FC01019000207A
:10090000E9F73197AF01481B590BBC018FEE91E01D
:100910000C942E0380E090E008958F929F92AF9206
:10092000BF920F931F93CF93DF93CDB7DEB7A197FD
:100930000FB6F894DEBF0FBECDBF19A2423008F447
:100940004AE08E010F5D1F4F842E912CA12CB12CFB
:10095000A50194010E94220CE62FB901CA010150A1
:100960001109EA3014F4E05D01C0E95CD801EC93B0
:10097000232B242B252B61F7C8010E947B04A19611
:100980000FB6F894DEBF0FBECDBFDF91CF911F91A0
:100990000F91BF90AF909F908F900895CF93DF936A
:1009A0000E947B04EC0188E191E00E947B048C0FA3
:1009B0009D1FDF91CF9108958F929F92AF92BF922A
:1009C000CF92DF92EF92FF920F931F93CF93DF931B
:1009D0006B017C01142F9B01AC010E94880E8823BF
:1009E00019F08BE191E027C046015701E894B7F870
:1009F0002FEF3FEF4FE75FE7C501B4010E94880E7C
:100A000081110DC02FEF3FEF4FE75FE7C501B40144
:100A10000E94B70C18161CF48FE191E00CC02FEF68
:100A20003FEF4FE75FE4C701B6010E94160E1816AC
:100A300084F483E291E0DF91CF911F910F91FF90B9
:100A4000EF90DF90CF90BF90AF909F908F900C94DD
:100A50007B042FEF3FEF4FE75FECC701B6010E9429
:100A6000B70C87FDE6CF20E030E0A901C701B60151
:100A70000E94B70C87FF0BC06DE28FEE91E00E94E1
:100A8000C503EC01F7FAF094F7F8F09402C0C0E067
:100A9000D0E000E060E070E080E09FE3101741F0FC
:100AA00020E030E040E251E40E94BC0C0F5FF6CF42
:100AB000A70196010E944B0C6B017C010E94350D31
:100AC0004B015C014AE00E948D04C80FD91F11231D
:100AD000B9F1C501B4010E94640D9B01AC01C701CD
:100AE000B6010E944A0C6B017C016EE28FEE91E030
:100AF0000E94C503C80FD91F20E030E040E251E456
:100B0000C701B6010E941B0E4B015C010E94350D0E
:100B10006B01E12CF12C4AE0C701B6010E948D0463
:100B2000C80FD91FC701B6010E94640D9B01AC011B
:100B3000C501B4010E944A0C6B017C011150E1F621
:100B4000CE01DF91CF911F910F91FF90EF90DF9039
:100B5000CF90BF90AF909F908F9008950E948D0E80
:100B60001F920F920FB60F9211242F933F938F93E2
:100B70009F93AF93BF938091EB019091EC01A09173
:100B8000ED01B091EE013091E60123E0230F2D3706
:100B900020F40196A11DB11D05C026E8230F029681
:100BA000A11DB11D2093E6018093EB019093EC0110
:100BB000A093ED01B093EE018091E7019091E801DF
:100BC000A091E901B091EA010196A11DB11D8093A8
:100BD000E7019093E801A093E901B093EA01BF9186
:100BE000AF919F918F913F912F910F900FBE0F90DA
:100BF0001F9018951F920F920FB60F9211242F93EA
:100C00003F934F935F936F937F938F939F93AF9394
:100C1000BF93EF93FF93E0910201F09103010995D7
:100C2000FF91EF91BF91AF919F918F917F916F91C4
:100C30005F914F913F912F910F900FBE0F901F909A
:100C400018951F920F920FB60F9211242F933F9376
:100C50004F935F936F937F938F939F93AF93BF93C4
:100C6000EF93FF93E0910001F09101010995FF914D
:100C7000EF91BF91AF919F918F917F916F915F9114
:100C80004F913F912F910F900FBE0F901F9018958D
:100C90001F920F920FB60F9211242F933F934F93F1
:100CA0005F936F937F938F939F93AF93BF93EF93D4
:100CB000FF938FEE91E00E94A303FF91EF91BF910C
:100CC000AF919F918F917F916F915F914F913F91E4
:100CD0002F910F900FBE0F901F9018951F920F929B
:100CE0000FB60F9211242F938F939F93EF93FF933F
:100CF000E091FF01F09100028081E0910502F09106
:100D0000060282FD12C09081809108028F5F8F736E
:100D100020910902821751F0E0910802F0E0E151C0
:100D2000FE4F958F8093080201C08081FF91EF9163
:100D30009F918F912F910F900FBE0F901F9018953C
:100D4000EFEEF1E01382128288EE93E0A0E0B0E0D3
:100D500084839583A683B7838AE091E0918380831F
:100D600085EC90E09587848784EC90E09787868770
:100D700080EC90E0918B808B81EC90E0938B828B68
:100D800082EC90E0958B848B86EC90E0978B868B41
:100D9000118E128E138E148EACE8B2E085E015969B
:100DA0008C93159786E116968C931697E1ECF0E0FC
:100DB000E4911796EC931797EDEAF0E0E49118961A
:100DC000EC93189740E85EE360E070E01D964D9369
:100DD0005D936D937C9350970895CF93DF93CDB738
:100DE000DEB728970FB6F894DEBF0FBECDBF78945C
:100DF00084B5826084BD84B5816084BD85B5826020
:100E000085BD85B5816085BD80916E0081608093D0
:100E10006E00109281008091810082608093810039
:100E20008091810081608093810080918000816049
:100E3000809380008091B10084608093B1008091A4
:100E4000B00081608093B00080917A0084608093CC
:100E50007A0080917A00826080937A0080917A0093
:100E6000816080937A0080917A00806880937A0014
:100E70001092C100E091FF01F091000282E08083B6
:100E8000E091FB01F091FC011082E091FD01F091F5
:100E9000FE018FEC808310920702E0910302F09133
:100EA000040286E08083E0910102F09102028081D9
:100EB00080618083E0910102F0910202808188606C
:100EC0008083E0910102F09102028081806880833A
:100ED000E0910102F091020280818F7D808360E0C9
:100EE00083E00E94200161E086E00E94200161E031
:100EF00087E00E94200161E084E00E94200161E01F
:100F000087E00E94D30060E084E00E94D30083E287
:100F100093E09093030180930201809169008C60BB
:100F200080936900E99A62E0809191020E94200119
:100F30002FB7F8948091EB019091EC01A091ED0115
:100F4000B091EE012FBF805D9740A109B109809358
:100F5000950290939602A0939702B093980287E32C
:100F600080939E0211E022242394312C0CE88FEE12
:100F700091E00E948D032091E501892B69F12111F7
:100F80002BC08FEE91E00E946B0390915B0199233F
:100F9000F1F0E0915A018E3379F0AE2FB0E0AB550D
:100FA000BE4F8C93EF5FE03218F4E0935A01DFCF2D
:100FB0002FE120935A01DBCFF0E0EB55FE4F10827A
:100FC00010925B0110925A011093E501D0CF8C333F
:100FD00071F610935B01CBCF222389F165EA71E0B2
:100FE00085EC91E00E949B0E67E271E085EC91E058
:100FF0000E94EE0B7C01BC018DE791E00E949B0EEC
:1010000069E271E0C7010E94920E892BB1F467E298
:1010100071E080E090E00E94EE0B0E94D00B809384
:10102000780167E271E080E090E00E94EE0B0E94A0
:10103000D00B9093A2018093A1011092E501E09161
:101040000401F0910501E730F10508F0A6C3EC5C5E
:10105000FF4F0C94440C0E943E048EE291E00E94EB
:10106000CE041093A40145E050E049C38091A30150
:10107000811104C00E9446041093A301C0909D01F9
:10108000D0909E01E0909F01F090A0016091A1019D
:101090007091A20180E090E00E94640DA70196018A
:1010A0000E94B70C18166CF089E491E00E94CE04FF
:1010B00080E090E00E945C010E943E0485E090E0A8
:1010C0003EC360E371E08DE791E00E94920E892BB0
:1010D00059F48EE291E00E94CE0480E090E00E94FC
:1010E0005C01A2E0B0E044C365E371E08DE791E00C
:1010F0000E94920E892B19F423E030E04AC36AE380
:1011000071E08DE791E00E94920E892B09F003C1F6
:101110000E9415028823D1F1809192028B30B0F1A8
:101120008D30A8F08551823088F560918C027091E5
:101130008D0276276727762780E090E00E94640D75
:101140002DEC3CEC4CEC5DE30E941B0E1CC060914E
:101150008D0270E080E090E00E94660D2DEC3CEC8A
:101160004CEC5DE30E941B0E6B017C0160918C02D4
:1011700070E080E090E00E94660D9B01AC01C70129
:10118000B6010E944B0C4B015C0106C0812C912CD6
:1011900020ECA22E2FE7B22E809260019092610186
:1011A000A0926201B09263010E941502882309F4A3
:1011B00074C0809192028C3009F448C018F48B30CE
:1011C000D1F06BC08551823008F067C070908E02FC
:1011D000672D6F7770E0762F662780918F02682BDE
:1011E00080E090E00E94640D2DEC3CEC4CEC5DE363
:1011F0000E941B0E49C060918E0270E080E090E07A
:101200000E94640D6B017C0170908F0277FE0AC012
:101210009B01AC0160E070E080E89FEB0E944A0C0B
:101220006B017C01672D6F7070E080E090E00E94A0
:10123000660D2DEC3CEC4CEC5DE30E941B0EA7010F
:1012400096010E944B0C6B017C012DC070908E02A8
:1012500060918F026F7070E080E090E00E94660DF8
:101260002DEC3CEC4CEC5DE30E941B0E6B017C0111
:10127000672D70E080E090E00E94640D9B01AC015E
:10128000C701B6010E944B0C6B017C0177FE0BC0BD
:10129000F7FAF094F7F8F09406C0C12CD12C80EC4A
:1012A000E82E8FE7F82EC0925C01D0925D01E092AB
:1012B0005E01F0925F01A5019401C501B4010E9495
:1012C000880E882329F08FE391E00E94CE0408C0A5
:1012D000A7019601C701B6010E94880E8111F3CFC4
:1012E0006091600170916101809162019091630150
:1012F00042E00E94DC0488E191E00E947B0460915E
:101300005C0170915D0180915E0190915F0142E00E
:101310000E94DC0425C063E471E08DE791E00E9447
:10132000920E892B19F5C701B6010E942E0D6B0193
:10133000770FEE08FF08F7FE0EC06DE28FEE91E02A
:101340000E94C50366277727CB016C197D098E099A
:101350009F094AE003C04AE0C701B6010E948D041C
:1013600088E191E00E947B040E943E048FB7F894CC
:101370004090EB015090EC016090ED017090EE0117
:101380008FBF8091790190917A01A0917B01B091FA
:101390007C01A3019201281B390B4A0B5B0B283CF3
:1013A00031054105510508F4F8C1F89460916401D4
:1013B000709165011092650110926401789480E04B
:1013C00090E00E94640D4B015C012FB7F89480916E
:1013D000EB019091EC01A091ED01B091EE012FBFD6
:1013E000C0907901D0907A01E0907B01F0907C016F
:1013F000BC01CD016C197D098E099F090E94640D05
:101400009B01AC0160E070E68AE697E40E94BC0CA8
:10141000A50194010E941B0E20E030EC4EE254E442
:101420000E94BC0C6B017C0160937201709373018C
:10143000809374019093750120E030EC4EE254E407
:10144000C501B4010E94BC0C9B01AC0160919D01DF
:1014500070919E0180919F019091A0010E944B0C80
:1014600060939D0170939E0180939F019093A001D2
:101470006091770170E080E090E00E94660DA70126
:1014800096010E944A0C6B017C0180916E01909143
:101490006F01A0917001B091710189839A83AB8330
:1014A000BC8320E030E04AE754E4BC01CD010E9457
:1014B000BC0C20E030E048E453E40E941B0E209175
:1014C0006A0130916B0140916C0150916D010E9455
:1014D0004B0C4B015C0160936A0170936B0180932C
:1014E0006C0190936D01C0926E01D0926F01E092F9
:1014F0007001F092710120E030E040E05FE3C7014D
:10150000B6010E941B0E6D837E838F8398872DEC1E
:101510003CEC4CE45FE3C501B4010E941B0E9B014F
:10152000AC016D817E818F8198850E944B0C4B01AF
:101530005C0129813A814B815C81C701B6010E941F
:101540004A0C20E030E048E453E40E94BC0C20E068
:1015500030E040E450E40E941B0E9B01AC01C50149
:10156000B4010E944B0C6B017C0120E030E04FE79E
:1015700053E40E94160E18164CF0C0926601D092E9
:101580006701E0926801F09269010CC080E090E090
:10159000AFE7B3E48093660190936701A09368017D
:1015A000B093690120E030E0A9016091660170917B
:1015B000670180916801909169010E94B70C87FFD3
:1015C00008C0109266011092670110926801109293
:1015D0006901609166017091670180916801909145
:1015E00069010E94350D862F90E00E945C014092B7
:1015F000790150927A0160927B0170927C01CDC09A
:101600000E943E0469E271E08DE791E00E94920E33
:10161000892B29F430920501209204015DC065E315
:1016200071E08DE791E00E94920E892B09F464CD60
:10163000B4C00E943E0480E090E00E945C0188E417
:1016400091E00E94CE041092A30190C00E943E043B
:101650008EE291E00E94CE041092A4010E94460402
:1016600096C06BE471E08DE791E00E94920E892BA9
:1016700049F48091A401813029F010920501109263
:1016800004018BC069E271E08DE791E00E94920E47
:10169000892B39F58091A401813019F520917801C9
:1016A0008BEF820F8330E8F48091A1019091A20129
:1016B000892BB9F03092050120920401253021F4E4
:1016C00082E88093770108C0263019F400937701EF
:1016D00003C036E9309377018EE291E00E94CE0498
:1016E0005CC060E571E08DE791E00E94920E892B6D
:1016F00059F48091A401813039F446E050E05093D0
:1017000005014093040149C065E371E08DE791E074
:101710000E94920E892B29F48091A401813009F452
:10172000EBCC65E571E08DE791E00E94920E892B8C
:10173000A1F58091A401813081F584E090E090933F
:1017400005018093040129C08091760191E08927E9
:1017500080937601882389F080E590E00E945C0107
:101760000E943E048EE291E00E94CE04A5E0B0E02B
:10177000B0930501A093040110C080E090E00E94A6
:101780005C010E943E0488E491E00E94CE0425E0C2
:1017900030E030930501209304010E943404E7CB2C
:1017A000FC0188279927E89421912032E9F3293018
:1017B00010F02E30C8F32B3241F02D3239F46894FA
:1017C00004C00E941A0C820F911D219120532A30CF
:1017D000C0F31EF4909581959F4F08954FE952E014
:1017E0000E94F30B0895FA01A191B081009719F4BA
:1017F0001097E1F0CD01DC01CD010D90002011F436
:10180000C00113C0FB012191222319F02015D9F743
:10181000F3CFFB012191201519F41E92119606C0F9
:101820002223C1F70D900020A1F7D001FA01A19366
:10183000B08308957AE0979F902D879F802D910D1A
:1018400011240895A1E21A2EAA1BBB1BFD010DC095
:10185000AA1FBB1FEE1FFF1FA217B307E407F50760
:1018600020F0A21BB30BE40BF50B661F771F881F3C
:10187000991F1A9469F760957095809590959B01D2
:10188000AC01BD01CF010895EE0FFF1F0590F4914B
:10189000E02D09945058BB27AA270E94620C0C9493
:1018A000DC0D0E94CE0D38F00E94D50D20F039F4E9
:1018B0009F3F19F426F40C94CB0D0EF4E095E7FB52
:1018C0000C94C50DE92F0E94ED0D58F3BA1762076D
:1018D00073078407950720F079F4A6F50C940F0E92
:1018E0000EF4E0950B2EBA2FA02D0B01B90190013B
:1018F0000C01CA01A0011124FF27591B99F0593F7F
:1019000050F4503E68F11A16F040A22F232F342FC6
:101910004427585FF3CF469537952795A795F04014
:101920005395C9F77EF41F16BA0B620B730B840B29
:10193000BAF09150A1F0FF0FBB1F661F771F881FE1
:10194000C2F70EC0BA0F621F731F841F48F4879539
:1019500077956795B795F7959E3F08F0B0CF93952B
:10196000880F08F09927EE0F9795879508950E94A4
:10197000A10D08F481E008950E94D00C0C94DC0DB8
:101980000E94D50D58F00E94CE0D40F029F45F3F23
:1019900029F00C94C50D51110C94100E0C94CB0D24
:1019A0000E94ED0D68F39923B1F3552391F3951B34
:1019B000550BBB27AA2762177307840738F09F5F70
:1019C0005F4F220F331F441FAA1FA9F335D00E2EDD
:1019D0003AF0E0E832D091505040E695001CCAF74A
:1019E0002BD0FE2F29D0660F771F881FBB1F26170D
:1019F00037074807AB07B0E809F0BB0B802DBF01E4
:101A0000FF2793585F4F3AF09E3F510578F00C94B2
:101A1000C50D0C94100E5F3FE4F3983ED4F3869509
:101A200077956795B795F7959F5FC9F7880F911DD3
:101A30009695879597F90895E1E0660F771F881FBF
:101A4000BB1F621773078407BA0720F0621B730B72
:101A5000840BBA0BEE1F88F7E09508950E94350DB0
:101A60006894B1110C94100E08950E94F50D88F041
:101A70009F5798F0B92F9927B751B0F0E1F0660F52
:101A8000771F881F991F1AF0BA95C9F714C0B13093
:101A900091F00E940F0EB1E008950C940F0E672F85
:101AA000782F8827B85F39F0B93FCCF386957795C2
:101AB0006795B395D9F73EF49095809570956195AB
:101AC0007F4F8F4F9F4F0895E89409C097FB3EF4D6
:101AD00090958095709561957F4F8F4F9F4F99237B
:101AE000A9F0F92F96E9BB279395F69587957795F9
:101AF0006795B795F111F8CFFAF4BB0F11F460FFB9
:101B00001BC06F5F7F4F8F4F9F4F16C0882311F010
:101B100096E911C0772321F09EE8872F762F05C024
:101B2000662371F096E8862F70E060E02AF09A95BF
:101B3000660F771F881FDAF7880F9695879597F9B4
:101B40000895990F0008550FAA0BE0E8FEEF16164E
:101B50001706E807F907C0F012161306E407F507A1
:101B600098F0621B730B840B950B39F40A2661F015
:101B7000232B242B252B21F408950A2609F4A140B8
:101B8000A6958FEF811D811D089597F99F6780E8C5
:101B900070E060E008959FEF80EC089500240A94BF
:101BA0001616170618060906089500240A94121638
:101BB0001306140605060895092E0394000C11F46B
:101BC000882352F0BB0F40F4BF2B11F460FF04C018
:101BD0006F5F7F4F8F4F9F4F089557FD9058440F71
:101BE000551F59F05F3F71F04795880F97FB991F7C
:101BF00061F09F3F79F08795089512161306140639
:101C0000551FF2CF4695F1DF08C0161617061806C5
:101C1000991FF1CF86957105610508940895E894A0
:101C2000BB2766277727CB0197F908950E94A10D5E
:101C300008F48FEF08950E942E0E0C94DC0D0E9484
:101C4000CE0D38F00E94D50D20F0952311F00C94A4
:101C5000C50D0C94CB0D11240C94100E0E94ED0DAB
:101C600070F3959FC1F3950F50E0551F629FF001EF
:101C7000729FBB27F00DB11D639FAA27F00DB11D08
:101C8000AA1F649F6627B00DA11D661F829F222791
:101C9000B00DA11D621F739FB00DA11D621F839F18
:101CA000A00D611D221F749F3327A00D611D231FEE
:101CB000849F600D211D822F762F6A2F11249F573C
:101CC00050409AF0F1F088234AF0EE0FFF1FBB1F3F
:101CD000661F771F881F91505040A9F79E3F5105FE
:101CE00080F00C94C50D0C94100E5F3FE4F3983E09
:101CF000D4F3869577956795B795F795E7959F5FA8
:101D0000C1F7FE2B880F911D9695879597F9089539
:101D10000E94A10D880B990B089581E090E0F89442
:101D20000C94A20EFB01DC018D9101908019011031
:101D3000D9F3990B0895FB01DC0101900D9200206D
:081D4000E1F70895F894FFCFCC
:101D48002D032D03050000000000C5032E035C03CE
:101D580012048D036B037F030D0A006E616E006928
:101D68006E66006F7666002C0053544152003000B6
:101D7800504155530053544F5000544D484D004E58
:101D8800614E0053454E44002D3100434F4E4E00E6
:0A1D9800544553540044434F4E00DD
:00000001FF
